{
  "contractName": "MultiSigContract",
  "abi": [
    {
      "constant": true,
      "inputs": [
        {
          "name": "",
          "type": "address"
        }
      ],
      "name": "contributionsMap",
      "outputs": [
        {
          "name": "",
          "type": "uint256"
        }
      ],
      "payable": false,
      "stateMutability": "view",
      "type": "function"
    },
    {
      "constant": true,
      "inputs": [
        {
          "name": "",
          "type": "address"
        }
      ],
      "name": "signerList",
      "outputs": [
        {
          "name": "",
          "type": "bool"
        }
      ],
      "payable": false,
      "stateMutability": "view",
      "type": "function"
    },
    {
      "constant": true,
      "inputs": [],
      "name": "availableContributions",
      "outputs": [
        {
          "name": "",
          "type": "uint256"
        }
      ],
      "payable": false,
      "stateMutability": "view",
      "type": "function"
    },
    {
      "inputs": [],
      "payable": false,
      "stateMutability": "nonpayable",
      "type": "constructor"
    },
    {
      "payable": true,
      "stateMutability": "payable",
      "type": "fallback"
    },
    {
      "anonymous": false,
      "inputs": [
        {
          "indexed": true,
          "name": "_contributor",
          "type": "address"
        },
        {
          "indexed": false,
          "name": "_valueInWei",
          "type": "uint256"
        }
      ],
      "name": "ReceivedContribution",
      "type": "event"
    },
    {
      "anonymous": false,
      "inputs": [
        {
          "indexed": true,
          "name": "_beneficiary",
          "type": "address"
        },
        {
          "indexed": false,
          "name": "_valueInWei",
          "type": "uint256"
        }
      ],
      "name": "ProposalSubmitted",
      "type": "event"
    },
    {
      "anonymous": false,
      "inputs": [
        {
          "indexed": true,
          "name": "_approver",
          "type": "address"
        },
        {
          "indexed": true,
          "name": "_beneficiary",
          "type": "address"
        },
        {
          "indexed": false,
          "name": "_valueInWei",
          "type": "uint256"
        }
      ],
      "name": "ProposalApproved",
      "type": "event"
    },
    {
      "anonymous": false,
      "inputs": [
        {
          "indexed": true,
          "name": "_rejecter",
          "type": "address"
        },
        {
          "indexed": true,
          "name": "_beneficiary",
          "type": "address"
        },
        {
          "indexed": false,
          "name": "_valueInWei",
          "type": "uint256"
        }
      ],
      "name": "ProposalRejected",
      "type": "event"
    },
    {
      "anonymous": false,
      "inputs": [
        {
          "indexed": true,
          "name": "_beneficiary",
          "type": "address"
        },
        {
          "indexed": false,
          "name": "_valueInWei",
          "type": "uint256"
        }
      ],
      "name": "WithdrawPerformed",
      "type": "event"
    },
    {
      "constant": true,
      "inputs": [
        {
          "name": "_beneficiary",
          "type": "address"
        }
      ],
      "name": "isProposalClosed",
      "outputs": [
        {
          "name": "",
          "type": "bool"
        }
      ],
      "payable": false,
      "stateMutability": "view",
      "type": "function"
    },
    {
      "constant": true,
      "inputs": [],
      "name": "owner",
      "outputs": [
        {
          "name": "",
          "type": "address"
        }
      ],
      "payable": false,
      "stateMutability": "view",
      "type": "function"
    },
    {
      "constant": false,
      "inputs": [],
      "name": "endContributionPeriod",
      "outputs": [],
      "payable": false,
      "stateMutability": "nonpayable",
      "type": "function"
    },
    {
      "constant": true,
      "inputs": [],
      "name": "listContributors",
      "outputs": [
        {
          "name": "",
          "type": "address[]"
        }
      ],
      "payable": false,
      "stateMutability": "view",
      "type": "function"
    },
    {
      "constant": true,
      "inputs": [
        {
          "name": "_contributor",
          "type": "address"
        }
      ],
      "name": "getContributorAmount",
      "outputs": [
        {
          "name": "",
          "type": "address"
        },
        {
          "name": "",
          "type": "uint256"
        }
      ],
      "payable": false,
      "stateMutability": "view",
      "type": "function"
    },
    {
      "constant": true,
      "inputs": [],
      "name": "getContractStatus",
      "outputs": [
        {
          "name": "",
          "type": "bool"
        }
      ],
      "payable": false,
      "stateMutability": "view",
      "type": "function"
    },
    {
      "constant": true,
      "inputs": [],
      "name": "getTotalContributions",
      "outputs": [
        {
          "name": "",
          "type": "uint256"
        }
      ],
      "payable": false,
      "stateMutability": "view",
      "type": "function"
    },
    {
      "constant": false,
      "inputs": [
        {
          "name": "_valueInWei",
          "type": "uint256"
        }
      ],
      "name": "submitProposal",
      "outputs": [],
      "payable": true,
      "stateMutability": "payable",
      "type": "function"
    },
    {
      "constant": false,
      "inputs": [
        {
          "name": "_beneficiary",
          "type": "address"
        }
      ],
      "name": "approve",
      "outputs": [],
      "payable": false,
      "stateMutability": "nonpayable",
      "type": "function"
    },
    {
      "constant": false,
      "inputs": [
        {
          "name": "_beneficiary",
          "type": "address"
        }
      ],
      "name": "reject",
      "outputs": [],
      "payable": false,
      "stateMutability": "nonpayable",
      "type": "function"
    },
    {
      "constant": false,
      "inputs": [
        {
          "name": "_valueInWei",
          "type": "uint256"
        }
      ],
      "name": "withdraw",
      "outputs": [],
      "payable": false,
      "stateMutability": "nonpayable",
      "type": "function"
    },
    {
      "constant": true,
      "inputs": [
        {
          "name": "_signer",
          "type": "address"
        },
        {
          "name": "_beneficiary",
          "type": "address"
        }
      ],
      "name": "getSignerVote",
      "outputs": [
        {
          "name": "",
          "type": "uint256"
        }
      ],
      "payable": false,
      "stateMutability": "view",
      "type": "function"
    },
    {
      "constant": true,
      "inputs": [],
      "name": "listOpenBeneficiariesProposals",
      "outputs": [
        {
          "name": "",
          "type": "address[]"
        }
      ],
      "payable": false,
      "stateMutability": "view",
      "type": "function"
    },
    {
      "constant": true,
      "inputs": [
        {
          "name": "_beneficiary",
          "type": "address"
        }
      ],
      "name": "getBeneficiaryProposal",
      "outputs": [
        {
          "name": "",
          "type": "uint256"
        }
      ],
      "payable": false,
      "stateMutability": "view",
      "type": "function"
    },
    {
      "constant": true,
      "inputs": [
        {
          "name": "proposerAddress",
          "type": "address"
        }
      ],
      "name": "getProposalDetails",
      "outputs": [
        {
          "name": "",
          "type": "address"
        },
        {
          "name": "",
          "type": "uint256"
        },
        {
          "name": "",
          "type": "uint256"
        },
        {
          "name": "",
          "type": "uint256"
        },
        {
          "name": "",
          "type": "uint256"
        }
      ],
      "payable": false,
      "stateMutability": "view",
      "type": "function"
    },
    {
      "constant": true,
      "inputs": [],
      "name": "getProposalAddressList",
      "outputs": [
        {
          "name": "",
          "type": "address[]"
        },
        {
          "name": "",
          "type": "address[]"
        }
      ],
      "payable": false,
      "stateMutability": "view",
      "type": "function"
    }
  ],
  "bytecode": "0x6080604052336000806101000a81548173ffffffffffffffffffffffffffffffffffffffff021916908373ffffffffffffffffffffffffffffffffffffffff16021790555060008060146101000a81548160ff02191690831515021790555034801561006a57600080fd5b5060016006600073fa3c6a1d480a14c546f12cdbb6d1bacbf02a161073ffffffffffffffffffffffffffffffffffffffff16815260200190815260200160002060006101000a81548160ff021916908315150217905550600160066000732f47343208d8db38a64f49d7384ce70367fc98c073ffffffffffffffffffffffffffffffffffffffff16815260200190815260200160002060006101000a81548160ff021916908315150217905550600160066000737c0e7b2418141f492653c6bf9ced144c338ba74073ffffffffffffffffffffffffffffffffffffffff16815260200190815260200160002060006101000a81548160ff021916908315150217905550610190600360015461019b64010000000002610996179091906401000000009004565b6001819055506101b7565b600081830190508281101515156101ae57fe5b80905092915050565b611ea9806101c66000396000f300608060405260043610610107576000357c0100000000000000000000000000000000000000000000000000000000900463ffffffff16806302b11082146103405780630d65830114610357578063237819fe146103f65780632e1a7d4d146104625780632e5184641461048f57806342fd96b41461051957806346fd1df11461057057806356f6509b146105cb57806359109b641461067f578063736d95aa146106eb57806386b81eb61461070b5780638da5cb5b14610782578063ab0da5a9146107d9578063c032846b1461081c578063c651aada1461084b578063daea85c5146108a2578063ddf556d0146108e5578063ea32ab5514610910578063fc4bae3d1461093b575b60008060001515600060149054906101000a900460ff16151514151561012c57600080fd5b60003411151561013b57600080fd5b61018d34600560003373ffffffffffffffffffffffffffffffffffffffff1673ffffffffffffffffffffffffffffffffffffffff1681526020019081526020016000205461099690919063ffffffff16565b600560003373ffffffffffffffffffffffffffffffffffffffff1673ffffffffffffffffffffffffffffffffffffffff168152602001908152602001600020819055506101e53460035461099690919063ffffffff16565b60038190555060009150600090505b600980549050811015610280573373ffffffffffffffffffffffffffffffffffffffff1660098281548110151561022757fe5b9060005260206000200160009054906101000a900473ffffffffffffffffffffffffffffffffffffffff1673ffffffffffffffffffffffffffffffffffffffff16141561027357600191505b80806001019150506101f4565b8115156102ee5760093390806001815401808255809150509060018203906000526020600020016000909192909190916101000a81548173ffffffffffffffffffffffffffffffffffffffff021916908373ffffffffffffffffffffffffffffffffffffffff160217905550505b3373ffffffffffffffffffffffffffffffffffffffff167f4af4040804455d5519363ab32562d3354dc05571e414cec4d799a581d6e6b3a7346040518082815260200191505060405180910390a25050005b34801561034c57600080fd5b506103556109b2565b005b34801561036357600080fd5b50610398600480360381019080803573ffffffffffffffffffffffffffffffffffffffff169060200190929190505050610a0b565b604051808673ffffffffffffffffffffffffffffffffffffffff1673ffffffffffffffffffffffffffffffffffffffff1681526020018581526020018481526020018381526020018281526020019550505050505060405180910390f35b34801561040257600080fd5b5061040b610ad6565b6040518080602001828103825283818151815260200191508051906020019060200280838360005b8381101561044e578082015181840152602081019050610433565b505050509050019250505060405180910390f35b34801561046e57600080fd5b5061048d60048036038101908080359060200190929190505050610b64565b005b34801561049b57600080fd5b506104d0600480360381019080803573ffffffffffffffffffffffffffffffffffffffff169060200190929190505050610d03565b604051808373ffffffffffffffffffffffffffffffffffffffff1673ffffffffffffffffffffffffffffffffffffffff1681526020018281526020019250505060405180910390f35b34801561052557600080fd5b5061055a600480360381019080803573ffffffffffffffffffffffffffffffffffffffff169060200190929190505050610d50565b6040518082815260200191505060405180910390f35b34801561057c57600080fd5b506105b1600480360381019080803573ffffffffffffffffffffffffffffffffffffffff169060200190929190505050610d68565b604051808215151515815260200191505060405180910390f35b3480156105d757600080fd5b506105e0610d88565b604051808060200180602001838103835285818151815260200191508051906020019060200280838360005b8381101561062757808201518184015260208101905061060c565b50505050905001838103825284818151815260200191508051906020019060200280838360005b8381101561066957808201518184015260208101905061064e565b5050505090500194505050505060405180910390f35b34801561068b57600080fd5b50610694611015565b6040518080602001828103825283818151815260200191508051906020019060200280838360005b838110156106d75780820151818401526020810190506106bc565b505050509050019250505060405180910390f35b61070960048036038101908080359060200190929190505050611210565b005b34801561071757600080fd5b5061076c600480360381019080803573ffffffffffffffffffffffffffffffffffffffff169060200190929190803573ffffffffffffffffffffffffffffffffffffffff16906020019092919050505061144e565b6040518082815260200191505060405180910390f35b34801561078e57600080fd5b506107976114f5565b604051808273ffffffffffffffffffffffffffffffffffffffff1673ffffffffffffffffffffffffffffffffffffffff16815260200191505060405180910390f35b3480156107e557600080fd5b5061081a600480360381019080803573ffffffffffffffffffffffffffffffffffffffff16906020019092919050505061151e565b005b34801561082857600080fd5b50610831611865565b604051808215151515815260200191505060405180910390f35b34801561085757600080fd5b5061088c600480360381019080803573ffffffffffffffffffffffffffffffffffffffff16906020019092919050505061187b565b6040518082815260200191505060405180910390f35b3480156108ae57600080fd5b506108e3600480360381019080803573ffffffffffffffffffffffffffffffffffffffff1690602001909291905050506118e4565b005b3480156108f157600080fd5b506108fa611cb1565b6040518082815260200191505060405180910390f35b34801561091c57600080fd5b50610925611cbb565b6040518082815260200191505060405180910390f35b34801561094757600080fd5b5061097c600480360381019080803573ffffffffffffffffffffffffffffffffffffffff169060200190929190505050611cc1565b604051808215151515815260200191505060405180910390f35b600081830190508281101515156109a957fe5b80905092915050565b60001515600060149054906101000a900460ff1615151415156109d457600080fd5b60006003541115156109e557600080fd5b6003546004819055506001600060146101000a81548160ff021916908315150217905550565b600080600080600080600a600760008973ffffffffffffffffffffffffffffffffffffffff1673ffffffffffffffffffffffffffffffffffffffff16815260200190815260200160002054815481101515610a6257fe5b9060005260206000209060050201905086816000015482600201548360030154600860003373ffffffffffffffffffffffffffffffffffffffff1673ffffffffffffffffffffffffffffffffffffffff16815260200190815260200160002054955095509550955095505091939590929450565b60606009805480602002602001604051908101604052809291908181526020018280548015610b5a57602002820191906000526020600020905b8160009054906101000a900473ffffffffffffffffffffffffffffffffffffffff1673ffffffffffffffffffffffffffffffffffffffff1681526020019060010190808311610b10575b5050505050905090565b60011515600060149054906101000a900460ff161515141515610b8657600080fd5b8080600860003373ffffffffffffffffffffffffffffffffffffffff1673ffffffffffffffffffffffffffffffffffffffff1681526020019081526020016000205410151515610bd557600080fd5b610c2782600860003373ffffffffffffffffffffffffffffffffffffffff1673ffffffffffffffffffffffffffffffffffffffff16815260200190815260200160002054611dd790919063ffffffff16565b600860003373ffffffffffffffffffffffffffffffffffffffff1673ffffffffffffffffffffffffffffffffffffffff168152602001908152602001600020819055503373ffffffffffffffffffffffffffffffffffffffff166108fc839081150290604051600060405180830381858888f19350505050158015610cb0573d6000803e3d6000fd5b503373ffffffffffffffffffffffffffffffffffffffff167ffca010261c61503eba494501406a4775d0887b49857dc75c92d1cc92a20e4e83836040518082815260200191505060405180910390a25050565b60008082600560008573ffffffffffffffffffffffffffffffffffffffff1673ffffffffffffffffffffffffffffffffffffffff1681526020019081526020016000205491509150915091565b60056020528060005260406000206000915090505481565b60066020528060005260406000206000915054906101000a900460ff1681565b6060806060806000806000610d9b611e3e565b600a80549050604051908082528060200260200182016040528015610dcf5781602001602082028038833980820191505090505b509550600a80549050604051908082528060200260200182016040528015610e065781602001602082028038833980820191505090505b5094506000935060009250600091505b600a8054905082101561100557600a82815481101515610e3257fe5b906000526020600020906005020160806040519081016040529081600082015481526020016001820160009054906101000a900473ffffffffffffffffffffffffffffffffffffffff1673ffffffffffffffffffffffffffffffffffffffff1673ffffffffffffffffffffffffffffffffffffffff168152602001600282015481526020016003820154815250509050600073ffffffffffffffffffffffffffffffffffffffff16816020015173ffffffffffffffffffffffffffffffffffffffff16141515610ff857610f126002600154611df090919063ffffffff16565b816060015111158015610f3e5750610f366002600154611df090919063ffffffff16565b816040015111155b15610f9f5780602001518685815181101515610f5657fe5b9060200190602002019073ffffffffffffffffffffffffffffffffffffffff16908173ffffffffffffffffffffffffffffffffffffffff16815250508380600101945050610ff7565b80602001518584815181101515610fb257fe5b9060200190602002019073ffffffffffffffffffffffffffffffffffffffff16908173ffffffffffffffffffffffffffffffffffffffff168152505082806001019350505b5b8180600101925050610e16565b8585975097505050505050509091565b60608060008060006060600a805490506040519080825280602002602001820160405280156110535781602001602082028038833980820191505090505b50945060009350600092505b600a8054905083101561115757600a8381548110151561107b57fe5b906000526020600020906005020191506110a16002600154611df090919063ffffffff16565b8260030154111580156110cd57506110c56002600154611df090919063ffffffff16565b826002015411155b1561114a578160010160009054906101000a900473ffffffffffffffffffffffffffffffffffffffff16858581518110151561110557fe5b9060200190602002019073ffffffffffffffffffffffffffffffffffffffff16908173ffffffffffffffffffffffffffffffffffffffff168152505083806001019450505b828060010193505061105f565b836040519080825280602002602001820160405280156111865781602001602082028038833980820191505090505b509050600092505b838310156112055784838151811015156111a457fe5b9060200190602002015181848151811015156111bc57fe5b9060200190602002019073ffffffffffffffffffffffffffffffffffffffff16908173ffffffffffffffffffffffffffffffffffffffff1681525050828060010193505061118e565b809550505050505090565b60011515600060149054906101000a900460ff16151514151561123257600080fd5b6000600760003373ffffffffffffffffffffffffffffffffffffffff1673ffffffffffffffffffffffffffffffffffffffff168152602001908152602001600020541480611285575061128433611cc1565b5b151561129057600080fd5b806003546112a8600a83611e0690919063ffffffff16565b111515156112b557600080fd5b60045481111515156112c657600080fd5b600a6080604051908101604052808481526020013373ffffffffffffffffffffffffffffffffffffffff168152602001600081526020016000815250908060018154018082558091505090600182039060005260206000209060050201600090919290919091506000820151816000015560208201518160010160006101000a81548173ffffffffffffffffffffffffffffffffffffffff021916908373ffffffffffffffffffffffffffffffffffffffff16021790555060408201518160020155606082015181600301555050506001600a8054905003600760003373ffffffffffffffffffffffffffffffffffffffff1673ffffffffffffffffffffffffffffffffffffffff168152602001908152602001600020819055506113f682600454611dd790919063ffffffff16565b6004819055503373ffffffffffffffffffffffffffffffffffffffff167f9502d7618553b38b99edbe5d1547756cc9ab18db5ddd0674b051490ca4e2fb4c836040518082815260200191505060405180910390a25050565b6000600a600760008473ffffffffffffffffffffffffffffffffffffffff1673ffffffffffffffffffffffffffffffffffffffff1681526020019081526020016000205481548110151561149e57fe5b906000526020600020906005020160040160008473ffffffffffffffffffffffffffffffffffffffff1673ffffffffffffffffffffffffffffffffffffffff16815260200190815260200160002054905092915050565b60008060009054906101000a900473ffffffffffffffffffffffffffffffffffffffff16905090565b600060011515600060149054906101000a900460ff16151514151561154257600080fd5b600660003373ffffffffffffffffffffffffffffffffffffffff1673ffffffffffffffffffffffffffffffffffffffff16815260200190815260200160002060009054906101000a900460ff161515611603576040517f08c379a00000000000000000000000000000000000000000000000000000000081526004018080602001828103825260168152602001807f596f7520617265206e6f742061207369676e657221210000000000000000000081525060200191505060405180910390fd5b816000600760008373ffffffffffffffffffffffffffffffffffffffff1673ffffffffffffffffffffffffffffffffffffffff1681526020019081526020016000205411151561165257600080fd5b6000600a600760008473ffffffffffffffffffffffffffffffffffffffff1673ffffffffffffffffffffffffffffffffffffffff168152602001908152602001600020548154811015156116a257fe5b906000526020600020906005020160040160003373ffffffffffffffffffffffffffffffffffffffff1673ffffffffffffffffffffffffffffffffffffffff168152602001908152602001600020541415156116fd57600080fd5b600a600760008573ffffffffffffffffffffffffffffffffffffffff1673ffffffffffffffffffffffffffffffffffffffff1681526020019081526020016000205481548110151561174b57fe5b9060005260206000209060050201915060028260040160003373ffffffffffffffffffffffffffffffffffffffff1673ffffffffffffffffffffffffffffffffffffffff1681526020019081526020016000208190555081600301600081548092919060010191905055506117cc6002600154611df090919063ffffffff16565b826003015411156117f7576117f0826000015460045461099690919063ffffffff16565b6004819055505b8273ffffffffffffffffffffffffffffffffffffffff163373ffffffffffffffffffffffffffffffffffffffff167ff810df3b626605dbc005192086f67ae1f96ccb46b942d17dc90f159a1018298e84600001546040518082815260200191505060405180910390a3505050565b60008060149054906101000a900460ff16905090565b6000600a600760008473ffffffffffffffffffffffffffffffffffffffff1673ffffffffffffffffffffffffffffffffffffffff168152602001908152602001600020548154811015156118cb57fe5b9060005260206000209060050201600001549050919050565b600060011515600060149054906101000a900460ff16151514151561190857600080fd5b600660003373ffffffffffffffffffffffffffffffffffffffff1673ffffffffffffffffffffffffffffffffffffffff16815260200190815260200160002060009054906101000a900460ff1615156119c9576040517f08c379a00000000000000000000000000000000000000000000000000000000081526004018080602001828103825260168152602001807f596f7520617265206e6f742061207369676e657221210000000000000000000081525060200191505060405180910390fd5b816000600760008373ffffffffffffffffffffffffffffffffffffffff1673ffffffffffffffffffffffffffffffffffffffff16815260200190815260200160002054111515611a1857600080fd5b6000600a600760008473ffffffffffffffffffffffffffffffffffffffff1673ffffffffffffffffffffffffffffffffffffffff16815260200190815260200160002054815481101515611a6857fe5b906000526020600020906005020160040160003373ffffffffffffffffffffffffffffffffffffffff1673ffffffffffffffffffffffffffffffffffffffff16815260200190815260200160002054141515611ac357600080fd5b600a600760008573ffffffffffffffffffffffffffffffffffffffff1673ffffffffffffffffffffffffffffffffffffffff16815260200190815260200160002054815481101515611b1157fe5b9060005260206000209060050201915060018260040160003373ffffffffffffffffffffffffffffffffffffffff1673ffffffffffffffffffffffffffffffffffffffff16815260200190815260200160002081905550611b806001836002015461099690919063ffffffff16565b8260020181905550611b9e6002600154611df090919063ffffffff16565b82600201541115611c4357611bff8260000154600860008673ffffffffffffffffffffffffffffffffffffffff1673ffffffffffffffffffffffffffffffffffffffff1681526020019081526020016000205461099690919063ffffffff16565b600860008573ffffffffffffffffffffffffffffffffffffffff1673ffffffffffffffffffffffffffffffffffffffff168152602001908152602001600020819055505b8273ffffffffffffffffffffffffffffffffffffffff163373ffffffffffffffffffffffffffffffffffffffff167f6785be290ed8ae6f56ea596a5b8b77b39d1c96fa2f2d17de1c58be88bb67af4d84600001546040518082815260200191505060405180910390a3505050565b6000600354905090565b60045481565b6000611cd96002600154611df090919063ffffffff16565b600a600760008573ffffffffffffffffffffffffffffffffffffffff1673ffffffffffffffffffffffffffffffffffffffff16815260200190815260200160002054815481101515611d2757fe5b9060005260206000209060050201600301541115611d485760019050611dd2565b611d5e6002600154611df090919063ffffffff16565b600a600760008573ffffffffffffffffffffffffffffffffffffffff1673ffffffffffffffffffffffffffffffffffffffff16815260200190815260200160002054815481101515611dac57fe5b9060005260206000209060050201600201541115611dcd5760019050611dd2565b600090505b919050565b6000828211151515611de557fe5b818303905092915050565b60008183811515611dfd57fe5b04905092915050565b600080831415611e195760009050611e38565b8183029050818382811515611e2a57fe5b04141515611e3457fe5b8090505b92915050565b60806040519081016040528060008152602001600073ffffffffffffffffffffffffffffffffffffffff168152602001600081526020016000815250905600a165627a7a72305820d64ba9e24f26d122ec1a26102539bb2e148b286e2dc48da14e926982bab9cc5e0029",
  "source": "pragma solidity ^0.4.20;\n\ncontract MultiSigContract {\n    using SafeMath for uint256;\n\n    // Variables\n    address private contractOwner = msg.sender;\n    bool private isContractActive = false;\n    uint private signerCount;\n    uint private contributorCount;\n    uint private totalContributions;\n    uint public availableContributions;\n\n    mapping (address => uint) public contributionsMap;\n    mapping (address => bool) public signerList;\n    mapping(address => uint) _beneficiaryProposalIndex;  \n    mapping (address => uint) amountToWithdraw;\n    address[] contributorsList;\n    \n    Proposal[] proposals;\n\n    struct Proposal {\n        uint _valueInWei;\n        address _beneficiary;\n        uint approvalCount;\n        uint rejectedCount;\n        mapping (address => uint) sigatures;\n    }\n\n    // Constructor\n    constructor () public {\n        \n        signerList[0xfa3c6a1d480a14c546f12cdbb6d1bacbf02a1610] = true;\n        signerList[0x2f47343208d8db38a64f49d7384ce70367fc98c0] = true;\n        signerList[0x7c0e7b2418141f492653c6bf9ced144c338ba740] = true;\n        //signerList[0x391a861a4049a3f55c8a9260fa9ec2089157559b] = true;\n        //signerList[0x0523475fdd073de39148830c25c936252f611679] = true;\n        //signerList[0xf6e793afdfbe34e57e783352d1e046ad74db9fa1] = true;\n        signerCount = signerCount.add(3);  \n    }\n\n    // Events\n    event ReceivedContribution(address indexed _contributor, uint _valueInWei);\n    event ProposalSubmitted(address indexed _beneficiary, uint _valueInWei);\n    event ProposalApproved(address indexed _approver, address indexed _beneficiary, uint _valueInWei);\n    event ProposalRejected(address indexed _rejecter, address indexed _beneficiary, uint _valueInWei);\n    event WithdrawPerformed(address indexed _beneficiary, uint _valueInWei);\n\n    // Modifiers\n    modifier onlyifContractStatusActive() {\n        require(isContractActive == true);\n        _;\n    }\n    modifier acceptContributions() {\n        require(isContractActive == false);\n        _;\n    }\n    modifier onlySigner() {\n        require(signerList[msg.sender], \"You are not a signer!!\");\n        _;\n    }\n    \n    modifier onlyIfValueAllowed(uint _amount) {\n            require(_amount.mul(10) <= totalContributions);\n            require(_amount <= availableContributions);\n        _;   \n        }\n        \n        modifier onlyIfNoOpenProposal() {\n            require(_beneficiaryProposalIndex[msg.sender] == 0 || isProposalClosed(msg.sender));\n            _;\n        }\n        \n        modifier onlyIfNotVoted(address _beneficiary) {\n            require(_beneficiaryProposalIndex[_beneficiary] > 0);\n            require(proposals[_beneficiaryProposalIndex[_beneficiary]].sigatures[msg.sender] == 0);\n            _;\n        }\n        \n        modifier onlyIfWithdrawable(uint _amountToWithdraw) {        \n            require(amountToWithdraw[msg.sender] >= _amountToWithdraw);\n            _;\n        }\n        \n        function isProposalClosed(address _beneficiary) public view returns (bool) {\n            if(proposals[_beneficiaryProposalIndex[_beneficiary]].rejectedCount > signerCount.div(2)) {\n                return true;\n            }\n            if(proposals[_beneficiaryProposalIndex[_beneficiary]].approvalCount > signerCount.div(2)) {\n                return true;\n            }   \n            return false;     \n        }\n        \n\n    function owner() external view returns(address){\n    return contractOwner;\n    }\n\n    function () payable public acceptContributions {\n    require(msg.value > 0);\n    contributionsMap[msg.sender] = contributionsMap[msg.sender].add(msg.value);\n    totalContributions = totalContributions.add(msg.value);\n    bool alreadyExists = false;\n    for(uint i = 0; i< contributorsList.length; i++){\n        if(contributorsList[i] == msg.sender){\n            alreadyExists = true;\n        }\n    }\n    if(!alreadyExists){\n        contributorsList.push(msg.sender);\n    }\n    emit ReceivedContribution(msg.sender, msg.value);\n    }\n\n    //function endContributionPeriod() acceptContributions onlySigner external {\n    function endContributionPeriod() acceptContributions external {\n\n        require(totalContributions > 0);\n        availableContributions = totalContributions;\n        isContractActive = true;\n    }\n\n    function listContributors() external view returns (address[]) {\n        return contributorsList;\n    }\n\n    function getContributorAmount(address _contributor) external view returns (address, uint) {\n        return (_contributor, contributionsMap[_contributor]);\n    }\n\n    function getContractStatus() external view returns (bool) {\n        return isContractActive;\n    }\n\n    function getTotalContributions() external view returns (uint) {\n        return totalContributions;\n    }\n\n    function submitProposal(uint _valueInWei) external payable onlyifContractStatusActive onlyIfNoOpenProposal onlyIfValueAllowed(_valueInWei) {\n        proposals.push(Proposal(_valueInWei, msg.sender, 0, 0));\n        _beneficiaryProposalIndex[msg.sender] = proposals.length - 1;\n        availableContributions = availableContributions.sub(_valueInWei);\n        emit ProposalSubmitted(msg.sender, _valueInWei);\n    }\n        \n    function approve(address _beneficiary) external onlyifContractStatusActive onlySigner onlyIfNotVoted(_beneficiary) {\n        Proposal storage p = proposals[_beneficiaryProposalIndex[_beneficiary]];\n        p.sigatures[msg.sender] = 1;  \n        p.approvalCount = p.approvalCount.add(1);\n\n        if(p.approvalCount > signerCount.div(2)) {\n            amountToWithdraw[_beneficiary] = amountToWithdraw[_beneficiary].add(p._valueInWei);\n        }\n        emit ProposalApproved(msg.sender, _beneficiary, p._valueInWei);\n    }\n        \n        function reject(address _beneficiary) external onlyifContractStatusActive onlySigner onlyIfNotVoted(_beneficiary) {\n            Proposal storage p = proposals[_beneficiaryProposalIndex[_beneficiary]];\n            p.sigatures[msg.sender] = 2;\n            p.rejectedCount++;\n            \n            if(p.rejectedCount > signerCount.div(2)) {\n                availableContributions = availableContributions.add(p._valueInWei);\n            }\n            emit ProposalRejected(msg.sender, _beneficiary, p._valueInWei);\n        }\n    \n        function withdraw(uint _valueInWei) external onlyifContractStatusActive onlyIfWithdrawable(_valueInWei) {\n            amountToWithdraw[msg.sender] = amountToWithdraw[msg.sender].sub(_valueInWei);        \n            msg.sender.transfer(_valueInWei);\n            emit WithdrawPerformed(msg.sender, _valueInWei);\n        }\n        \n        function getSignerVote(address _signer, address _beneficiary) view external returns(uint) {\n            return proposals[_beneficiaryProposalIndex[_beneficiary]].sigatures[_signer];\n        }\n\n    function listOpenBeneficiariesProposals() external view returns (address[]) {\n        address[] memory openBeneficiaries = new address[](proposals.length);\n        uint j=0;\n        for(uint i=0; i < proposals.length;i++) {\n            Proposal storage p = proposals[i];\n            if(p.rejectedCount <= signerCount.div(2) && p.approvalCount <= signerCount.div(2)) {\n                openBeneficiaries[j] = p._beneficiary;\n                j++;\n            }\n        }\n        \n        address[] memory openBeneficiariesActual = new address[](j);\n        for(i=0;i<j;i++){\n            openBeneficiariesActual[i] = openBeneficiaries[i];\n        }\n        \n        return openBeneficiariesActual;\n    }\n\n    function getBeneficiaryProposal(address _beneficiary) external view returns (uint) {\n        return proposals[_beneficiaryProposalIndex[_beneficiary]]._valueInWei;\n    }\n\n    //Added toget Details\n    function getProposalDetails(address proposerAddress) external view \n        returns(address, uint,uint,uint,uint){\n\n        Proposal storage p = proposals[_beneficiaryProposalIndex[proposerAddress]];\n        \n        return (proposerAddress, p._valueInWei, p.approvalCount, p.rejectedCount, amountToWithdraw[msg.sender]);\n    }\n\n    //Added to get address of open and closed proposals\n    function getProposalAddressList() external view returns(address[], address[]){\n        address[] memory openBeneficiaries = new address[](proposals.length);\n        address[] memory closedBeneficiaries = new address[](proposals.length);\n        uint j = 0;\n        uint k = 0;\n        for(uint i = 0; i < proposals.length; i++) {\n            Proposal memory p = proposals[i];\n            if(p._beneficiary != address(0)){\n                if(p.rejectedCount <= signerCount.div(2) && p.approvalCount <= signerCount.div(2)) {\n                    openBeneficiaries[j] = p._beneficiary;\n                    j++;\n                }else{\n                    closedBeneficiaries[k] = p._beneficiary;\n                    k++;\n                }\n            }\n        }\n\n        return (openBeneficiaries, closedBeneficiaries);\n    }\n}\n\n    /**\n    * @title SafeMath\n    * @dev Math operations with safety checks that throw on error\n    */\n    library SafeMath {\n\n    /**\n    * @dev Multiplies two numbers, throws on overflow.\n    */\n    function mul(uint256 a, uint256 b) internal pure returns (uint256 c) {\n        // Gas optimization: this is cheaper than asserting 'a' not being zero, but the\n        // benefit is lost if 'b' is also tested.\n        // See: https://github.com/OpenZeppelin/openzeppelin-solidity/pull/522\n        if (a == 0) {\n          return 0;\n        }\n\n        c = a * b;\n        assert(c / a == b);\n        return c;\n    }\n\n    /**\n    * @dev Integer division of two numbers, truncating the quotient.\n    */\n    function div(uint256 a, uint256 b) internal pure returns (uint256) {\n        // assert(b > 0); // Solidity automatically throws when dividing by 0\n        // uint256 c = a / b;\n        // assert(a == b * c + a % b); // There is no case in which this doesn't hold\n        return a / b;\n    }\n\n    /**\n    * @dev Subtracts two numbers, throws on overflow (i.e. if subtrahend is greater than minuend).\n    */\n    function sub(uint256 a, uint256 b) internal pure returns (uint256) {\n        assert(b <= a);\n        return a - b;\n    }\n\n    /**\n    * @dev Adds two numbers, throws on overflow.\n    */\n    function add(uint256 a, uint256 b) internal pure returns (uint256 c) {\n        c = a + b;\n        assert(c >= a);\n        return c;\n    }\n}",
  "sourcePath": "/opt/projects/multisigwallet-ui/contracts/MultiSigContract.sol",
  "compiler": {
    "name": "solc",
    "version": "0.4.24+commit.e67f0147.Emscripten.clang"
  },
  "schemaVersion": "2.0.1",
  "updatedAt": "2018-08-24T13:17:22.478Z"
}