{
  "contractName": "MultiSigContract",
  "abi": [
    {
      "constant": false,
      "inputs": [],
      "name": "unpause",
      "outputs": [],
      "payable": false,
      "stateMutability": "nonpayable",
      "type": "function"
    },
    {
      "constant": true,
      "inputs": [
        {
          "name": "",
          "type": "address"
        }
      ],
      "name": "contributionsMap",
      "outputs": [
        {
          "name": "",
          "type": "uint256"
        }
      ],
      "payable": false,
      "stateMutability": "view",
      "type": "function"
    },
    {
      "constant": true,
      "inputs": [
        {
          "name": "",
          "type": "address"
        }
      ],
      "name": "signerList",
      "outputs": [
        {
          "name": "",
          "type": "bool"
        }
      ],
      "payable": false,
      "stateMutability": "view",
      "type": "function"
    },
    {
      "constant": true,
      "inputs": [],
      "name": "paused",
      "outputs": [
        {
          "name": "",
          "type": "bool"
        }
      ],
      "payable": false,
      "stateMutability": "view",
      "type": "function"
    },
    {
      "constant": false,
      "inputs": [],
      "name": "renounceOwnership",
      "outputs": [],
      "payable": false,
      "stateMutability": "nonpayable",
      "type": "function"
    },
    {
      "constant": false,
      "inputs": [],
      "name": "pause",
      "outputs": [],
      "payable": false,
      "stateMutability": "nonpayable",
      "type": "function"
    },
    {
      "constant": true,
      "inputs": [],
      "name": "owner",
      "outputs": [
        {
          "name": "",
          "type": "address"
        }
      ],
      "payable": false,
      "stateMutability": "view",
      "type": "function"
    },
    {
      "constant": true,
      "inputs": [],
      "name": "availableContributions",
      "outputs": [
        {
          "name": "",
          "type": "uint256"
        }
      ],
      "payable": false,
      "stateMutability": "view",
      "type": "function"
    },
    {
      "constant": false,
      "inputs": [
        {
          "name": "_newOwner",
          "type": "address"
        }
      ],
      "name": "transferOwnership",
      "outputs": [],
      "payable": false,
      "stateMutability": "nonpayable",
      "type": "function"
    },
    {
      "inputs": [],
      "payable": false,
      "stateMutability": "nonpayable",
      "type": "constructor"
    },
    {
      "payable": true,
      "stateMutability": "payable",
      "type": "fallback"
    },
    {
      "anonymous": false,
      "inputs": [
        {
          "indexed": true,
          "name": "_contributor",
          "type": "address"
        },
        {
          "indexed": false,
          "name": "_valueInWei",
          "type": "uint256"
        }
      ],
      "name": "ReceivedContribution",
      "type": "event"
    },
    {
      "anonymous": false,
      "inputs": [
        {
          "indexed": true,
          "name": "_beneficiary",
          "type": "address"
        },
        {
          "indexed": false,
          "name": "_valueInWei",
          "type": "uint256"
        }
      ],
      "name": "ProposalSubmitted",
      "type": "event"
    },
    {
      "anonymous": false,
      "inputs": [
        {
          "indexed": true,
          "name": "_approver",
          "type": "address"
        },
        {
          "indexed": true,
          "name": "_beneficiary",
          "type": "address"
        },
        {
          "indexed": false,
          "name": "_valueInWei",
          "type": "uint256"
        }
      ],
      "name": "ProposalApproved",
      "type": "event"
    },
    {
      "anonymous": false,
      "inputs": [
        {
          "indexed": true,
          "name": "_rejecter",
          "type": "address"
        },
        {
          "indexed": true,
          "name": "_beneficiary",
          "type": "address"
        },
        {
          "indexed": false,
          "name": "_valueInWei",
          "type": "uint256"
        }
      ],
      "name": "ProposalRejected",
      "type": "event"
    },
    {
      "anonymous": false,
      "inputs": [
        {
          "indexed": true,
          "name": "_beneficiary",
          "type": "address"
        },
        {
          "indexed": false,
          "name": "_valueInWei",
          "type": "uint256"
        }
      ],
      "name": "WithdrawPerformed",
      "type": "event"
    },
    {
      "anonymous": false,
      "inputs": [],
      "name": "Pause",
      "type": "event"
    },
    {
      "anonymous": false,
      "inputs": [],
      "name": "Unpause",
      "type": "event"
    },
    {
      "anonymous": false,
      "inputs": [
        {
          "indexed": true,
          "name": "previousOwner",
          "type": "address"
        }
      ],
      "name": "OwnershipRenounced",
      "type": "event"
    },
    {
      "anonymous": false,
      "inputs": [
        {
          "indexed": true,
          "name": "previousOwner",
          "type": "address"
        },
        {
          "indexed": true,
          "name": "newOwner",
          "type": "address"
        }
      ],
      "name": "OwnershipTransferred",
      "type": "event"
    },
    {
      "constant": true,
      "inputs": [
        {
          "name": "_beneficiary",
          "type": "address"
        }
      ],
      "name": "isProposalClosed",
      "outputs": [
        {
          "name": "",
          "type": "bool"
        }
      ],
      "payable": false,
      "stateMutability": "view",
      "type": "function"
    },
    {
      "constant": false,
      "inputs": [],
      "name": "endContributionPeriod",
      "outputs": [],
      "payable": false,
      "stateMutability": "nonpayable",
      "type": "function"
    },
    {
      "constant": true,
      "inputs": [],
      "name": "listContributors",
      "outputs": [
        {
          "name": "",
          "type": "address[]"
        }
      ],
      "payable": false,
      "stateMutability": "view",
      "type": "function"
    },
    {
      "constant": true,
      "inputs": [
        {
          "name": "_contributor",
          "type": "address"
        }
      ],
      "name": "getContributorAmount",
      "outputs": [
        {
          "name": "",
          "type": "address"
        },
        {
          "name": "",
          "type": "uint256"
        }
      ],
      "payable": false,
      "stateMutability": "view",
      "type": "function"
    },
    {
      "constant": true,
      "inputs": [],
      "name": "getContractStatus",
      "outputs": [
        {
          "name": "",
          "type": "bool"
        }
      ],
      "payable": false,
      "stateMutability": "view",
      "type": "function"
    },
    {
      "constant": true,
      "inputs": [],
      "name": "getTotalContributions",
      "outputs": [
        {
          "name": "",
          "type": "uint256"
        }
      ],
      "payable": false,
      "stateMutability": "view",
      "type": "function"
    },
    {
      "constant": false,
      "inputs": [
        {
          "name": "_valueInWei",
          "type": "uint256"
        }
      ],
      "name": "submitProposal",
      "outputs": [],
      "payable": true,
      "stateMutability": "payable",
      "type": "function"
    },
    {
      "constant": false,
      "inputs": [
        {
          "name": "_beneficiary",
          "type": "address"
        }
      ],
      "name": "approve",
      "outputs": [],
      "payable": false,
      "stateMutability": "nonpayable",
      "type": "function"
    },
    {
      "constant": false,
      "inputs": [
        {
          "name": "_beneficiary",
          "type": "address"
        }
      ],
      "name": "reject",
      "outputs": [],
      "payable": false,
      "stateMutability": "nonpayable",
      "type": "function"
    },
    {
      "constant": false,
      "inputs": [
        {
          "name": "beneficiary",
          "type": "address"
        },
        {
          "name": "_valueInWei",
          "type": "uint256"
        }
      ],
      "name": "withdraw",
      "outputs": [],
      "payable": false,
      "stateMutability": "nonpayable",
      "type": "function"
    },
    {
      "constant": true,
      "inputs": [
        {
          "name": "_signer",
          "type": "address"
        },
        {
          "name": "_beneficiary",
          "type": "address"
        }
      ],
      "name": "getSignerVote",
      "outputs": [
        {
          "name": "",
          "type": "uint256"
        }
      ],
      "payable": false,
      "stateMutability": "view",
      "type": "function"
    },
    {
      "constant": true,
      "inputs": [],
      "name": "listOpenBeneficiariesProposals",
      "outputs": [
        {
          "name": "",
          "type": "address[]"
        }
      ],
      "payable": false,
      "stateMutability": "view",
      "type": "function"
    },
    {
      "constant": true,
      "inputs": [
        {
          "name": "_beneficiary",
          "type": "address"
        }
      ],
      "name": "getBeneficiaryProposal",
      "outputs": [
        {
          "name": "",
          "type": "uint256"
        }
      ],
      "payable": false,
      "stateMutability": "view",
      "type": "function"
    },
    {
      "constant": true,
      "inputs": [
        {
          "name": "proposerAddress",
          "type": "address"
        }
      ],
      "name": "getProposalDetails",
      "outputs": [
        {
          "name": "",
          "type": "address"
        },
        {
          "name": "",
          "type": "uint256"
        },
        {
          "name": "",
          "type": "uint256"
        },
        {
          "name": "",
          "type": "uint256"
        },
        {
          "name": "",
          "type": "uint256"
        }
      ],
      "payable": false,
      "stateMutability": "view",
      "type": "function"
    },
    {
      "constant": true,
      "inputs": [],
      "name": "getProposalAddressList",
      "outputs": [
        {
          "name": "",
          "type": "address[]"
        },
        {
          "name": "",
          "type": "address[]"
        }
      ],
      "payable": false,
      "stateMutability": "view",
      "type": "function"
    },
    {
      "constant": false,
      "inputs": [],
      "name": "kill",
      "outputs": [],
      "payable": false,
      "stateMutability": "nonpayable",
      "type": "function"
    }
  ],
  "bytecode": "0x608060405260008060146101000a81548160ff02191690831515021790555033600160006101000a81548173ffffffffffffffffffffffffffffffffffffffff021916908373ffffffffffffffffffffffffffffffffffffffff1602179055506000600160146101000a81548160ff02191690831515021790555034801561008657600080fd5b50336000806101000a81548173ffffffffffffffffffffffffffffffffffffffff021916908373ffffffffffffffffffffffffffffffffffffffff1602179055506120df806100d66000396000f300608060405260043610610149576000357c0100000000000000000000000000000000000000000000000000000000900463ffffffff16806302b110821461039e5780630d658301146103b5578063237819fe146104545780632e518464146104c05780633f4ba83a1461054a57806341c0e1b51461056157806342fd96b41461057857806346fd1df1146105cf57806356f6509b1461062a57806359109b64146106de5780635c975abb1461074a578063715018a614610779578063736d95aa146107905780638456cb59146107b057806386b81eb6146107c75780638da5cb5b1461083e578063ab0da5a914610895578063c032846b146108d8578063c651aada14610907578063daea85c51461095e578063ddf556d0146109a1578063ea32ab55146109cc578063f2fde38b146109f7578063f3fef3a314610a3a578063fc4bae3d14610a87575b600080600060149054906101000a900460ff1615151561016857600080fd5b60001515600160149054906101000a900460ff16151514151561018a57600080fd5b60003411151561019957600080fd5b6101eb34600660003373ffffffffffffffffffffffffffffffffffffffff1673ffffffffffffffffffffffffffffffffffffffff16815260200190815260200160002054610ae290919063ffffffff16565b600660003373ffffffffffffffffffffffffffffffffffffffff1673ffffffffffffffffffffffffffffffffffffffff1681526020019081526020016000208190555061024334600454610ae290919063ffffffff16565b60048190555060009150600090505b600a805490508110156102de573373ffffffffffffffffffffffffffffffffffffffff16600a8281548110151561028557fe5b9060005260206000200160009054906101000a900473ffffffffffffffffffffffffffffffffffffffff1673ffffffffffffffffffffffffffffffffffffffff1614156102d157600191505b8080600101915050610252565b81151561034c57600a3390806001815401808255809150509060018203906000526020600020016000909192909190916101000a81548173ffffffffffffffffffffffffffffffffffffffff021916908373ffffffffffffffffffffffffffffffffffffffff160217905550505b3373ffffffffffffffffffffffffffffffffffffffff167f4af4040804455d5519363ab32562d3354dc05571e414cec4d799a581d6e6b3a7346040518082815260200191505060405180910390a25050005b3480156103aa57600080fd5b506103b3610afe565b005b3480156103c157600080fd5b506103f6600480360381019080803573ffffffffffffffffffffffffffffffffffffffff169060200190929190505050610b56565b604051808673ffffffffffffffffffffffffffffffffffffffff1673ffffffffffffffffffffffffffffffffffffffff1681526020018581526020018481526020018381526020018281526020019550505050505060405180910390f35b34801561046057600080fd5b50610469610c21565b6040518080602001828103825283818151815260200191508051906020019060200280838360005b838110156104ac578082015181840152602081019050610491565b505050509050019250505060405180910390f35b3480156104cc57600080fd5b50610501600480360381019080803573ffffffffffffffffffffffffffffffffffffffff169060200190929190505050610caf565b604051808373ffffffffffffffffffffffffffffffffffffffff1673ffffffffffffffffffffffffffffffffffffffff1681526020018281526020019250505060405180910390f35b34801561055657600080fd5b5061055f610cfc565b005b34801561056d57600080fd5b50610576610dba565b005b34801561058457600080fd5b506105b9600480360381019080803573ffffffffffffffffffffffffffffffffffffffff169060200190929190505050610e4b565b6040518082815260200191505060405180910390f35b3480156105db57600080fd5b50610610600480360381019080803573ffffffffffffffffffffffffffffffffffffffff169060200190929190505050610e63565b604051808215151515815260200191505060405180910390f35b34801561063657600080fd5b5061063f610e83565b604051808060200180602001838103835285818151815260200191508051906020019060200280838360005b8381101561068657808201518184015260208101905061066b565b50505050905001838103825284818151815260200191508051906020019060200280838360005b838110156106c85780820151818401526020810190506106ad565b5050505090500194505050505060405180910390f35b3480156106ea57600080fd5b506106f3611102565b6040518080602001828103825283818151815260200191508051906020019060200280838360005b8381101561073657808201518184015260208101905061071b565b505050509050019250505060405180910390f35b34801561075657600080fd5b5061075f6112fb565b604051808215151515815260200191505060405180910390f35b34801561078557600080fd5b5061078e61130e565b005b6107ae60048036038101908080359060200190929190505050611410565b005b3480156107bc57600080fd5b506107c561166a565b005b3480156107d357600080fd5b50610828600480360381019080803573ffffffffffffffffffffffffffffffffffffffff169060200190929190803573ffffffffffffffffffffffffffffffffffffffff16906020019092919050505061172a565b6040518082815260200191505060405180910390f35b34801561084a57600080fd5b506108536117d1565b604051808273ffffffffffffffffffffffffffffffffffffffff1673ffffffffffffffffffffffffffffffffffffffff16815260200191505060405180910390f35b3480156108a157600080fd5b506108d6600480360381019080803573ffffffffffffffffffffffffffffffffffffffff1690602001909291905050506117f6565b005b3480156108e457600080fd5b506108ed61195e565b604051808215151515815260200191505060405180910390f35b34801561091357600080fd5b50610948600480360381019080803573ffffffffffffffffffffffffffffffffffffffff169060200190929190505050611975565b6040518082815260200191505060405180910390f35b34801561096a57600080fd5b5061099f600480360381019080803573ffffffffffffffffffffffffffffffffffffffff1690602001909291905050506119de565b005b3480156109ad57600080fd5b506109b6611bcc565b6040518082815260200191505060405180910390f35b3480156109d857600080fd5b506109e1611bd6565b6040518082815260200191505060405180910390f35b348015610a0357600080fd5b50610a38600480360381019080803573ffffffffffffffffffffffffffffffffffffffff169060200190929190505050611bdc565b005b348015610a4657600080fd5b50610a85600480360381019080803573ffffffffffffffffffffffffffffffffffffffff16906020019092919080359060200190929190505050611c43565b005b348015610a9357600080fd5b50610ac8600480360381019080803573ffffffffffffffffffffffffffffffffffffffff169060200190929190505050611dff565b604051808215151515815260200191505060405180910390f35b60008183019050828110151515610af557fe5b80905092915050565b60001515600160149054906101000a900460ff161515141515610b2057600080fd5b6000600454111515610b3157600080fd5b60045460058190555060018060146101000a81548160ff021916908315150217905550565b600080600080600080600b600860008973ffffffffffffffffffffffffffffffffffffffff1673ffffffffffffffffffffffffffffffffffffffff16815260200190815260200160002054815481101515610bad57fe5b9060005260206000209060050201905086816000015482600201548360030154600960003373ffffffffffffffffffffffffffffffffffffffff1673ffffffffffffffffffffffffffffffffffffffff16815260200190815260200160002054955095509550955095505091939590929450565b6060600a805480602002602001604051908101604052809291908181526020018280548015610ca557602002820191906000526020600020905b8160009054906101000a900473ffffffffffffffffffffffffffffffffffffffff1673ffffffffffffffffffffffffffffffffffffffff1681526020019060010190808311610c5b575b5050505050905090565b60008082600660008573ffffffffffffffffffffffffffffffffffffffff1673ffffffffffffffffffffffffffffffffffffffff1681526020019081526020016000205491509150915091565b6000809054906101000a900473ffffffffffffffffffffffffffffffffffffffff1673ffffffffffffffffffffffffffffffffffffffff163373ffffffffffffffffffffffffffffffffffffffff16141515610d5757600080fd5b600060149054906101000a900460ff161515610d7257600080fd5b60008060146101000a81548160ff0219169083151502179055507f7805862f689e2f13df9f062ff482ad3ad112aca9e0847911ed832e158c525b3360405160405180910390a1565b6000809054906101000a900473ffffffffffffffffffffffffffffffffffffffff1673ffffffffffffffffffffffffffffffffffffffff163373ffffffffffffffffffffffffffffffffffffffff161415610e49576000809054906101000a900473ffffffffffffffffffffffffffffffffffffffff1673ffffffffffffffffffffffffffffffffffffffff16ff5b565b60066020528060005260406000206000915090505481565b60076020528060005260406000206000915054906101000a900460ff1681565b6060806060806000806000610e96612074565b600b80549050604051908082528060200260200182016040528015610eca5781602001602082028038833980820191505090505b509550600b80549050604051908082528060200260200182016040528015610f015781602001602082028038833980820191505090505b5094506000935060009250600091505b600b805490508210156110f257600b82815481101515610f2d57fe5b906000526020600020906005020160806040519081016040529081600082015481526020016001820160009054906101000a900473ffffffffffffffffffffffffffffffffffffffff1673ffffffffffffffffffffffffffffffffffffffff1673ffffffffffffffffffffffffffffffffffffffff168152602001600282015481526020016003820154815250509050600073ffffffffffffffffffffffffffffffffffffffff16816020015173ffffffffffffffffffffffffffffffffffffffff161415156110e557600281606001511115801561101157506002816040015111155b1561106e578060200151868581518110151561102957fe5b9060200190602002019073ffffffffffffffffffffffffffffffffffffffff16908173ffffffffffffffffffffffffffffffffffffffff168152505083806001019450505b6002816060015110158061108757506002816040015110155b156110e4578060200151858481518110151561109f57fe5b9060200190602002019073ffffffffffffffffffffffffffffffffffffffff16908173ffffffffffffffffffffffffffffffffffffffff168152505082806001019350505b5b8180600101925050610f11565b8585975097505050505050509091565b60608060008060006060600b805490506040519080825280602002602001820160405280156111405781602001602082028038833980820191505090505b5094506000935061115c60028054611f1390919063ffffffff16565b826003015411158015611187575061117f60028054611f1390919063ffffffff16565b826002015411155b15611204578160010160009054906101000a900473ffffffffffffffffffffffffffffffffffffffff1685858151811015156111bf57fe5b9060200190602002019073ffffffffffffffffffffffffffffffffffffffff16908173ffffffffffffffffffffffffffffffffffffffff168152505083806001019450505b600092505b600b805490508310156112f057600b8381548110151561122557fe5b90600052602060002090600502019150836040519080825280602002602001820160405280156112645781602001602082028038833980820191505090505b509050600092505b838310156112e357848381518110151561128257fe5b90602001906020020151818481518110151561129a57fe5b9060200190602002019073ffffffffffffffffffffffffffffffffffffffff16908173ffffffffffffffffffffffffffffffffffffffff1681525050828060010193505061126c565b8280600101935050611209565b809550505050505090565b600060149054906101000a900460ff1681565b6000809054906101000a900473ffffffffffffffffffffffffffffffffffffffff1673ffffffffffffffffffffffffffffffffffffffff163373ffffffffffffffffffffffffffffffffffffffff1614151561136957600080fd5b6000809054906101000a900473ffffffffffffffffffffffffffffffffffffffff1673ffffffffffffffffffffffffffffffffffffffff167ff8df31144d9c2f0f6b59d69b8b98abd5459d07f2742c4df920b25aae33c6482060405160405180910390a260008060006101000a81548173ffffffffffffffffffffffffffffffffffffffff021916908373ffffffffffffffffffffffffffffffffffffffff160217905550565b600060149054906101000a900460ff1615151561142c57600080fd5b60011515600160149054906101000a900460ff16151514151561144e57600080fd5b6000600860003373ffffffffffffffffffffffffffffffffffffffff1673ffffffffffffffffffffffffffffffffffffffff1681526020019081526020016000205414806114a157506114a033611dff565b5b15156114ac57600080fd5b806004546114c4600a83611f2990919063ffffffff16565b111515156114d157600080fd5b60055481111515156114e257600080fd5b600b6080604051908101604052808481526020013373ffffffffffffffffffffffffffffffffffffffff168152602001600081526020016000815250908060018154018082558091505090600182039060005260206000209060050201600090919290919091506000820151816000015560208201518160010160006101000a81548173ffffffffffffffffffffffffffffffffffffffff021916908373ffffffffffffffffffffffffffffffffffffffff16021790555060408201518160020155606082015181600301555050506001600b8054905003600860003373ffffffffffffffffffffffffffffffffffffffff1673ffffffffffffffffffffffffffffffffffffffff1681526020019081526020016000208190555061161282600554611f6190919063ffffffff16565b6005819055503373ffffffffffffffffffffffffffffffffffffffff167f9502d7618553b38b99edbe5d1547756cc9ab18db5ddd0674b051490ca4e2fb4c836040518082815260200191505060405180910390a25050565b6000809054906101000a900473ffffffffffffffffffffffffffffffffffffffff1673ffffffffffffffffffffffffffffffffffffffff163373ffffffffffffffffffffffffffffffffffffffff161415156116c557600080fd5b600060149054906101000a900460ff161515156116e157600080fd5b6001600060146101000a81548160ff0219169083151502179055507f6985a02210a168e66602d3235cb6db0e70f92b3ba4d376a33c0f3d9434bff62560405160405180910390a1565b6000600b600860008473ffffffffffffffffffffffffffffffffffffffff1673ffffffffffffffffffffffffffffffffffffffff1681526020019081526020016000205481548110151561177a57fe5b906000526020600020906005020160040160008473ffffffffffffffffffffffffffffffffffffffff1673ffffffffffffffffffffffffffffffffffffffff16815260200190815260200160002054905092915050565b6000809054906101000a900473ffffffffffffffffffffffffffffffffffffffff1681565b6000600b600860008473ffffffffffffffffffffffffffffffffffffffff1673ffffffffffffffffffffffffffffffffffffffff1681526020019081526020016000205481548110151561184657fe5b9060005260206000209060050201905060028160040160003373ffffffffffffffffffffffffffffffffffffffff1673ffffffffffffffffffffffffffffffffffffffff1681526020019081526020016000208190555080600301600081548092919060010191905055506118c660028054611f1390919063ffffffff16565b816003015411156118f1576118ea8160000154600554610ae290919063ffffffff16565b6005819055505b8173ffffffffffffffffffffffffffffffffffffffff163373ffffffffffffffffffffffffffffffffffffffff167ff810df3b626605dbc005192086f67ae1f96ccb46b942d17dc90f159a1018298e83600001546040518082815260200191505060405180910390a35050565b6000600160149054906101000a900460ff16905090565b6000600b600860008473ffffffffffffffffffffffffffffffffffffffff1673ffffffffffffffffffffffffffffffffffffffff168152602001908152602001600020548154811015156119c557fe5b9060005260206000209060050201600001549050919050565b6000600b600860008473ffffffffffffffffffffffffffffffffffffffff1673ffffffffffffffffffffffffffffffffffffffff16815260200190815260200160002054815481101515611a2e57fe5b9060005260206000209060050201905060018160040160003373ffffffffffffffffffffffffffffffffffffffff1673ffffffffffffffffffffffffffffffffffffffff16815260200190815260200160002081905550611a9d60018260020154610ae290919063ffffffff16565b8160020181905550611aba60028054611f1390919063ffffffff16565b81600201541115611b5f57611b1b8160000154600960008573ffffffffffffffffffffffffffffffffffffffff1673ffffffffffffffffffffffffffffffffffffffff16815260200190815260200160002054610ae290919063ffffffff16565b600960008473ffffffffffffffffffffffffffffffffffffffff1673ffffffffffffffffffffffffffffffffffffffff168152602001908152602001600020819055505b8173ffffffffffffffffffffffffffffffffffffffff163373ffffffffffffffffffffffffffffffffffffffff167f6785be290ed8ae6f56ea596a5b8b77b39d1c96fa2f2d17de1c58be88bb67af4d83600001546040518082815260200191505060405180910390a35050565b6000600454905090565b60055481565b6000809054906101000a900473ffffffffffffffffffffffffffffffffffffffff1673ffffffffffffffffffffffffffffffffffffffff163373ffffffffffffffffffffffffffffffffffffffff16141515611c3757600080fd5b611c4081611f7a565b50565b600060149054906101000a900460ff16151515611c5f57600080fd5b60011515600160149054906101000a900460ff161515141515611c8157600080fd5b8080600960003373ffffffffffffffffffffffffffffffffffffffff1673ffffffffffffffffffffffffffffffffffffffff1681526020019081526020016000205410151515611cd057600080fd5b611d2282600960003373ffffffffffffffffffffffffffffffffffffffff1673ffffffffffffffffffffffffffffffffffffffff16815260200190815260200160002054611f6190919063ffffffff16565b600960003373ffffffffffffffffffffffffffffffffffffffff1673ffffffffffffffffffffffffffffffffffffffff168152602001908152602001600020819055508273ffffffffffffffffffffffffffffffffffffffff166108fc839081150290604051600060405180830381858888f19350505050158015611dab573d6000803e3d6000fd5b508273ffffffffffffffffffffffffffffffffffffffff167ffca010261c61503eba494501406a4775d0887b49857dc75c92d1cc92a20e4e83836040518082815260200191505060405180910390a2505050565b6000611e1660028054611f1390919063ffffffff16565b600b600860008573ffffffffffffffffffffffffffffffffffffffff1673ffffffffffffffffffffffffffffffffffffffff16815260200190815260200160002054815481101515611e6457fe5b9060005260206000209060050201600301541115611e855760019050611f0e565b611e9a60028054611f1390919063ffffffff16565b600b600860008573ffffffffffffffffffffffffffffffffffffffff1673ffffffffffffffffffffffffffffffffffffffff16815260200190815260200160002054815481101515611ee857fe5b9060005260206000209060050201600201541115611f095760019050611f0e565b600090505b919050565b60008183811515611f2057fe5b04905092915050565b600080831415611f3c5760009050611f5b565b8183029050818382811515611f4d57fe5b04141515611f5757fe5b8090505b92915050565b6000828211151515611f6f57fe5b818303905092915050565b600073ffffffffffffffffffffffffffffffffffffffff168173ffffffffffffffffffffffffffffffffffffffff1614151515611fb657600080fd5b8073ffffffffffffffffffffffffffffffffffffffff166000809054906101000a900473ffffffffffffffffffffffffffffffffffffffff1673ffffffffffffffffffffffffffffffffffffffff167f8be0079c531659141344cd1fd0a4f28419497f9722a3daafe3b4186f6b6457e060405160405180910390a3806000806101000a81548173ffffffffffffffffffffffffffffffffffffffff021916908373ffffffffffffffffffffffffffffffffffffffff16021790555050565b60806040519081016040528060008152602001600073ffffffffffffffffffffffffffffffffffffffff168152602001600081526020016000815250905600a165627a7a723058206bb96d854a819c6878b71e0c14405766db43f46c9f4f8c52aff8c79d802834fe0029",
  "source": "pragma solidity ^0.4.20;\n\nimport \"openzeppelin-solidity/contracts/lifecycle/Pausable.sol\";\n\n/** @title MultiSignatureWallet */\n/**\n *     A MultiSignaturewallet responsbile for holding ether funded\n *     by the contributors and dispurse ether for proposers\n *     based on enough approval count\n */\ncontract MultiSigContract is Pausable {\n    using SafeMath for uint256;\n\n    // Variables\n    address private contractOwner = msg.sender;\n    bool private isContractActive = false;\n    uint private signerCount;\n    uint private contributorCount;\n    uint private totalContributions;\n    uint public availableContributions;\n\n    mapping (address => uint) public contributionsMap;\n    mapping (address => bool) public signerList;\n    mapping(address => uint) _beneficiaryProposalIndex;  \n    mapping (address => uint) amountToWithdraw;\n    address[] contributorsList;\n    \n    Proposal[] proposals;\n\n    struct Proposal {\n        uint _valueInWei;\n        address _beneficiary;\n        uint approvalCount;\n        uint rejectedCount;\n        mapping (address => uint) sigatures;\n    }\n\n    // Constructor\n    constructor()  public { \n        /*       \n        _beneficiaryProposalIndex[0x4a321b274338988d8ae5ea794ac1d5999f042002] = 0;\n        _beneficiaryProposalIndex[0x57913bb2e7d6feaf3aae607875d44a0d744fa8b9] = 1;\n        _beneficiaryProposalIndex[0xa04dad4445126b79aaaae2f4d0201749945ff3e2] = 2;\n        signerCount = signerCount.add(3);\n        */  \n    }\n\n    // Events to trigger where ever state changes happen\n    event ReceivedContribution(address indexed _contributor, uint _valueInWei);\n    event ProposalSubmitted(address indexed _beneficiary, uint _valueInWei);\n    event ProposalApproved(address indexed _approver, address indexed _beneficiary, uint _valueInWei);\n    event ProposalRejected(address indexed _rejecter, address indexed _beneficiary, uint _valueInWei);\n    event WithdrawPerformed(address indexed _beneficiary, uint _valueInWei);\n\n    // Modifiers \n    modifier onlyifContractStatusActive() {\n        require(isContractActive == true);\n        _;\n    }\n    modifier acceptContributions() {\n        require(isContractActive == false);\n        _;\n    }\n    modifier onlySigner() {\n        //require(signerList[msg.sender], \"You are not a signer!!\");\n        require(1 == 1, \"You are not a signer!!\");\n        _;\n    }\n    \n    modifier onlyIfValueAllowed(uint _amount) {\n        require(_amount.mul(10) <= totalContributions);\n        require(_amount <= availableContributions);\n        _;   \n    }\n        \n    modifier onlyIfNoOpenProposal() {\n        require(_beneficiaryProposalIndex[msg.sender] == 0 || isProposalClosed(msg.sender));\n        _;\n    }\n        \n    modifier onlyIfNotVoted(address _beneficiary) {\n        require(_beneficiaryProposalIndex[_beneficiary] > 0);\n        require(proposals[_beneficiaryProposalIndex[_beneficiary]].sigatures[msg.sender] == 0);\n        _;\n    }\n        \n    modifier onlyIfWithdrawable(uint _amountToWithdraw) {        \n        require(amountToWithdraw[msg.sender] >= _amountToWithdraw);\n        _;\n    }\n\n    /**\n    * @dev A function to check if the proposal is closed\n    * @param _beneficiary The address of the proposer\n    * @return boolean Returns true if proposal closed or false if proposal is opened\n    */\n    function isProposalClosed(address _beneficiary) public view returns (bool) {\n        if(proposals[_beneficiaryProposalIndex[_beneficiary]].rejectedCount > signerCount.div(2)) {\n            return true;\n        }\n        if(proposals[_beneficiaryProposalIndex[_beneficiary]].approvalCount > signerCount.div(2)) {\n            return true;\n        }   \n        return false;     \n    }\n        \n    /**\n    * @dev Fallback function which gets executed when the called function\n    *      doesnot exist\n    */\n\n    function () payable public whenNotPaused acceptContributions {\n        require(msg.value > 0);\n        contributionsMap[msg.sender] = contributionsMap[msg.sender].add(msg.value);\n        totalContributions = totalContributions.add(msg.value);\n        bool alreadyExists = false;\n        for(uint i = 0; i< contributorsList.length; i++){\n            if(contributorsList[i] == msg.sender){\n                alreadyExists = true;\n            }\n        }\n        if(!alreadyExists){\n            contributorsList.push(msg.sender);\n        }\n        emit ReceivedContribution(msg.sender, msg.value);\n    }\n\n    //function endContributionPeriod() acceptContributions onlySigner external {\n    function endContributionPeriod() acceptContributions external {\n\n        require(totalContributions > 0);\n        availableContributions = totalContributions;\n        isContractActive = true;\n    }\n\n    function listContributors() external view returns (address[]) {\n        return contributorsList;\n    }\n\n    function getContributorAmount(address _contributor) external view returns (address, uint) {\n        return (_contributor, contributionsMap[_contributor]);\n    }\n\n    function getContractStatus() external view returns (bool) {\n        return isContractActive;\n    }\n\n    function getTotalContributions() external view returns (uint) {\n        return totalContributions;\n    }\n\n    function submitProposal(uint _valueInWei) external payable whenNotPaused onlyifContractStatusActive onlyIfNoOpenProposal onlyIfValueAllowed(_valueInWei) {\n        proposals.push(Proposal(_valueInWei, msg.sender, 0, 0));\n        _beneficiaryProposalIndex[msg.sender] = proposals.length - 1;\n        availableContributions = availableContributions.sub(_valueInWei);\n        emit ProposalSubmitted(msg.sender, _valueInWei);\n    }\n        \n    //function approve(address _beneficiary) external onlyifContractStatusActive onlySigner onlyIfNotVoted(_beneficiary) {\n    function approve(address _beneficiary) external{\n        Proposal storage p = proposals[_beneficiaryProposalIndex[_beneficiary]];\n        p.sigatures[msg.sender] = 1;  \n        p.approvalCount = p.approvalCount.add(1);\n\n        if(p.approvalCount > signerCount.div(2)) {\n            amountToWithdraw[_beneficiary] = amountToWithdraw[_beneficiary].add(p._valueInWei);\n        }\n        emit ProposalApproved(msg.sender, _beneficiary, p._valueInWei);\n    } \n        \n    //function reject(address _beneficiary) external onlyifContractStatusActive onlySigner onlyIfNotVoted(_beneficiary) {\n    function reject(address _beneficiary) external {  \n        Proposal storage p = proposals[_beneficiaryProposalIndex[_beneficiary]];\n        p.sigatures[msg.sender] = 2;\n        p.rejectedCount++;\n            \n        if(p.rejectedCount > signerCount.div(2)) {\n            availableContributions = availableContributions.add(p._valueInWei);\n        }\n        emit ProposalRejected(msg.sender, _beneficiary, p._valueInWei);\n    }\n    \n    function withdraw(address beneficiary, uint _valueInWei) external whenNotPaused onlyifContractStatusActive onlyIfWithdrawable(_valueInWei) {\n        amountToWithdraw[msg.sender] = amountToWithdraw[msg.sender].sub(_valueInWei);        \n        beneficiary.transfer(_valueInWei);\n        emit WithdrawPerformed(beneficiary, _valueInWei);\n    }\n        \n    function getSignerVote(address _signer, address _beneficiary) view external returns(uint) {\n        return proposals[_beneficiaryProposalIndex[_beneficiary]].sigatures[_signer];\n    }\n\n    function listOpenBeneficiariesProposals() external view returns (address[]) {\n        address[] memory openBeneficiaries = new address[](proposals.length);\n        uint j = 0;\n\n        if(p.rejectedCount <= signerCount.div(2) && p.approvalCount <= signerCount.div(2)) {\n            openBeneficiaries[j] = p._beneficiary;\n            j++;\n        }\n        \n        for(uint i = 0; i < proposals.length; i++) {\n            Proposal storage p = proposals[i];\n            address[] memory openBeneficiariesActual = new address[](j);\n            for(i = 0;i<j;i++){\n                openBeneficiariesActual[i] = openBeneficiaries[i];\n            }\n        }\n        return openBeneficiariesActual;\n    }\n\n    function getBeneficiaryProposal(address _beneficiary) external view returns (uint) {\n        return proposals[_beneficiaryProposalIndex[_beneficiary]]._valueInWei;\n    }\n\n    //Added toget Details\n    function getProposalDetails(address proposerAddress) external view \n        returns(address, uint,uint,uint,uint){\n\n        Proposal storage p = proposals[_beneficiaryProposalIndex[proposerAddress]];\n        \n        return (proposerAddress, p._valueInWei, p.approvalCount, p.rejectedCount, amountToWithdraw[msg.sender]);\n    }\n\n    \n    function getProposalAddressList() external view returns(address[], address[]){\n        address[] memory openBeneficiaries = new address[](proposals.length);\n        address[] memory closedBeneficiaries = new address[](proposals.length);\n        uint j = 0;\n        uint k = 0;\n        for(uint i = 0; i < proposals.length; i++) {\n            Proposal memory p = proposals[i];\n            if(p._beneficiary != address(0)){\n                if(p.rejectedCount <= 2 && p.approvalCount <= 2) {\n                    openBeneficiaries[j] = p._beneficiary;\n                    j++;\n                }\n                \n                if(p.rejectedCount >= 2 || p.approvalCount >= 2){\n                    closedBeneficiaries[k] = p._beneficiary;\n                    k++;\n                }\n            }\n        }\n\n        return (openBeneficiaries, closedBeneficiaries);\n    }\n\n    function kill() public {\n        if(msg.sender == owner){\n            selfdestruct(owner);\n        }\n    }\n}\n\n    /**\n    * @title SafeMath\n    * @dev Math operations with safety checks that throw on error\n    */\nlibrary SafeMath {\n\n    /**\n    * @dev Multiplies two numbers, throws on overflow.\n    */\n    function mul(uint256 a, uint256 b) internal pure returns (uint256 c) {\n        // Gas optimization: this is cheaper than asserting 'a' not being zero, but the\n        // benefit is lost if 'b' is also tested.\n        // See: https://github.com/OpenZeppelin/openzeppelin-solidity/pull/522\n        if (a == 0) {\n            return 0;\n        }\n\n        c = a * b;\n        assert(c / a == b);\n        return c;\n    }\n\n    /**\n    * @dev Integer division of two numbers, truncating the quotient.\n    */\n    function div(uint256 a, uint256 b) internal pure returns (uint256) {\n        // assert(b > 0); // Solidity automatically throws when dividing by 0\n        // uint256 c = a / b;\n        // assert(a == b * c + a % b); // There is no case in which this doesn't hold\n        return a / b;\n    }\n\n    /**\n    * @dev Subtracts two numbers, throws on overflow (i.e. if subtrahend is greater than minuend).\n    */\n    function sub(uint256 a, uint256 b) internal pure returns (uint256) {\n        assert(b <= a);\n        return a - b;\n    }\n\n    /**\n    * @dev Adds two numbers, throws on overflow.\n    */\n    function add(uint256 a, uint256 b) internal pure returns (uint256 c) {\n        c = a + b;\n        assert(c >= a);\n        return c;\n    }\n}",
  "sourcePath": "/opt/projects/MultiSignatureWallet/contracts/MultiSigContract.sol",
  "compiler": {
    "name": "solc",
    "version": "0.4.24+commit.e67f0147.Emscripten.clang"
  },
  "schemaVersion": "2.0.1",
  "updatedAt": "2018-08-27T05:02:22.132Z"
}