{
  "contractName": "MultiSigContract1",
  "abi": [
    {
      "inputs": [],
      "payable": false,
      "stateMutability": "nonpayable",
      "type": "constructor"
    },
    {
      "payable": true,
      "stateMutability": "payable",
      "type": "fallback"
    },
    {
      "anonymous": false,
      "inputs": [
        {
          "indexed": true,
          "name": "_contributor",
          "type": "address"
        },
        {
          "indexed": false,
          "name": "value",
          "type": "uint256"
        }
      ],
      "name": "ReceivedContribution",
      "type": "event"
    },
    {
      "anonymous": false,
      "inputs": [
        {
          "indexed": true,
          "name": "_beneficiary",
          "type": "address"
        },
        {
          "indexed": false,
          "name": "_value",
          "type": "uint256"
        }
      ],
      "name": "ProposalSubmitted",
      "type": "event"
    },
    {
      "anonymous": false,
      "inputs": [
        {
          "indexed": true,
          "name": "_approver",
          "type": "address"
        },
        {
          "indexed": true,
          "name": "_beneficiary",
          "type": "address"
        },
        {
          "indexed": false,
          "name": "_value",
          "type": "uint256"
        }
      ],
      "name": "ProposalApproved",
      "type": "event"
    },
    {
      "anonymous": false,
      "inputs": [
        {
          "indexed": true,
          "name": "_approver",
          "type": "address"
        },
        {
          "indexed": true,
          "name": "_beneficiary",
          "type": "address"
        },
        {
          "indexed": false,
          "name": "_value",
          "type": "uint256"
        }
      ],
      "name": "ProposalRejected",
      "type": "event"
    },
    {
      "anonymous": false,
      "inputs": [
        {
          "indexed": true,
          "name": "beneficiary",
          "type": "address"
        },
        {
          "indexed": false,
          "name": "_value",
          "type": "uint256"
        }
      ],
      "name": "WithdrawPerformed",
      "type": "event"
    },
    {
      "constant": true,
      "inputs": [],
      "name": "listContributors",
      "outputs": [
        {
          "name": "",
          "type": "address[]"
        }
      ],
      "payable": false,
      "stateMutability": "view",
      "type": "function"
    },
    {
      "constant": true,
      "inputs": [
        {
          "name": "_contributor",
          "type": "address"
        }
      ],
      "name": "getContributorAmount",
      "outputs": [
        {
          "name": "",
          "type": "uint256"
        }
      ],
      "payable": false,
      "stateMutability": "view",
      "type": "function"
    },
    {
      "constant": false,
      "inputs": [],
      "name": "endContributionPeriod",
      "outputs": [
        {
          "name": "",
          "type": "bool"
        }
      ],
      "payable": false,
      "stateMutability": "nonpayable",
      "type": "function"
    },
    {
      "constant": false,
      "inputs": [
        {
          "name": "_value",
          "type": "uint256"
        }
      ],
      "name": "submitProposal",
      "outputs": [],
      "payable": false,
      "stateMutability": "nonpayable",
      "type": "function"
    },
    {
      "constant": true,
      "inputs": [],
      "name": "listOpenBeneficiariesProposals",
      "outputs": [
        {
          "name": "",
          "type": "address[]"
        }
      ],
      "payable": false,
      "stateMutability": "view",
      "type": "function"
    },
    {
      "constant": true,
      "inputs": [
        {
          "name": "_beneficiary",
          "type": "address"
        }
      ],
      "name": "getBeneficiaryProposal",
      "outputs": [
        {
          "name": "",
          "type": "uint256"
        }
      ],
      "payable": false,
      "stateMutability": "view",
      "type": "function"
    },
    {
      "constant": false,
      "inputs": [
        {
          "name": "_beneficiary",
          "type": "address"
        }
      ],
      "name": "approve",
      "outputs": [],
      "payable": false,
      "stateMutability": "nonpayable",
      "type": "function"
    },
    {
      "constant": false,
      "inputs": [
        {
          "name": "_beneficiary",
          "type": "address"
        }
      ],
      "name": "reject",
      "outputs": [],
      "payable": false,
      "stateMutability": "nonpayable",
      "type": "function"
    },
    {
      "constant": false,
      "inputs": [
        {
          "name": "_value",
          "type": "uint256"
        }
      ],
      "name": "withdraw",
      "outputs": [],
      "payable": false,
      "stateMutability": "nonpayable",
      "type": "function"
    },
    {
      "constant": true,
      "inputs": [],
      "name": "getTotalContribution",
      "outputs": [
        {
          "name": "",
          "type": "uint256"
        }
      ],
      "payable": false,
      "stateMutability": "view",
      "type": "function"
    },
    {
      "constant": true,
      "inputs": [],
      "name": "owner",
      "outputs": [
        {
          "name": "",
          "type": "address"
        }
      ],
      "payable": false,
      "stateMutability": "view",
      "type": "function"
    }
  ],
  "bytecode": "0x6080604052336000806101000a81548173ffffffffffffffffffffffffffffffffffffffff021916908373ffffffffffffffffffffffffffffffffffffffff1602179055506001600060146101000a81548160ff021916908315150217905550600060015560606040519081016040528073fa3c6a1d480a14c546f12cdbb6d1bacbf02a161073ffffffffffffffffffffffffffffffffffffffff1673ffffffffffffffffffffffffffffffffffffffff168152602001732f47343208d8db38a64f49d7384ce70367fc98c073ffffffffffffffffffffffffffffffffffffffff1673ffffffffffffffffffffffffffffffffffffffff168152602001737c0e7b2418141f492653c6bf9ced144c338ba74073ffffffffffffffffffffffffffffffffffffffff1673ffffffffffffffffffffffffffffffffffffffff168152506005906003620001529291906200021d565b503480156200016057600080fd5b5060008090505b60058054905081101562000216576001600460006005848154811015156200018b57fe5b9060005260206000200160009054906101000a900473ffffffffffffffffffffffffffffffffffffffff1673ffffffffffffffffffffffffffffffffffffffff1673ffffffffffffffffffffffffffffffffffffffff16815260200190815260200160002060006101000a81548160ff021916908360ff160217905550808060010191505062000167565b50620002f2565b82805482825590600052602060002090810192821562000299579160200282015b82811115620002985782518260006101000a81548173ffffffffffffffffffffffffffffffffffffffff021916908373ffffffffffffffffffffffffffffffffffffffff160217905550916020019190600101906200023e565b5b509050620002a89190620002ac565b5090565b620002ef91905b80821115620002eb57600081816101000a81549073ffffffffffffffffffffffffffffffffffffffff021916905550600101620002b3565b5090565b90565b6117e480620003026000396000f3006080604052600436106100af576000357c0100000000000000000000000000000000000000000000000000000000900463ffffffff16806302b11082146101e457806308caa91014610213578063237819fe1461023e5780632e1a7d4d146102aa5780632e518464146102d757806359109b641461032e578063736d95aa1461039a5780638da5cb5b146103c7578063ab0da5a91461041e578063c651aada14610461578063daea85c5146104b8575b60011515600060149054906101000a900460ff1615151415156100d157600080fd5b34600360003373ffffffffffffffffffffffffffffffffffffffff1673ffffffffffffffffffffffffffffffffffffffff168152602001908152602001600020600082825401925050819055503460016000828254019250508190555060023390806001815401808255809150509060018203906000526020600020016000909192909190916101000a81548173ffffffffffffffffffffffffffffffffffffffff021916908373ffffffffffffffffffffffffffffffffffffffff160217905550503373ffffffffffffffffffffffffffffffffffffffff167f4af4040804455d5519363ab32562d3354dc05571e414cec4d799a581d6e6b3a7346040518082815260200191505060405180910390a2005b3480156101f057600080fd5b506101f96104fb565b604051808215151515815260200191505060405180910390f35b34801561021f57600080fd5b50610228610587565b6040518082815260200191505060405180910390f35b34801561024a57600080fd5b50610253610591565b6040518080602001828103825283818151815260200191508051906020019060200280838360005b8381101561029657808201518184015260208101905061027b565b505050509050019250505060405180910390f35b3480156102b657600080fd5b506102d56004803603810190808035906020019092919050505061061f565b005b3480156102e357600080fd5b50610318600480360381019080803573ffffffffffffffffffffffffffffffffffffffff169060200190929190505050610913565b6040518082815260200191505060405180910390f35b34801561033a57600080fd5b5061034361095c565b6040518080602001828103825283818151815260200191508051906020019060200280838360005b8381101561038657808201518184015260208101905061036b565b505050509050019250505060405180910390f35b3480156103a657600080fd5b506103c5600480360381019080803590602001909291905050506109ea565b005b3480156103d357600080fd5b506103dc610e8b565b604051808273ffffffffffffffffffffffffffffffffffffffff1673ffffffffffffffffffffffffffffffffffffffff16815260200191505060405180910390f35b34801561042a57600080fd5b5061045f600480360381019080803573ffffffffffffffffffffffffffffffffffffffff169060200190929190505050610eb4565b005b34801561046d57600080fd5b506104a2600480360381019080803573ffffffffffffffffffffffffffffffffffffffff1690602001909291905050506111be565b6040518082815260200191505060405180910390f35b3480156104c457600080fd5b506104f9600480360381019080803573ffffffffffffffffffffffffffffffffffffffff16906020019092919050505061120a565b005b60008060009054906101000a900473ffffffffffffffffffffffffffffffffffffffff1673ffffffffffffffffffffffffffffffffffffffff163373ffffffffffffffffffffffffffffffffffffffff1614151561055857600080fd5b60008060146101000a81548160ff021916908315150217905550600060149054906101000a900460ff16905090565b6000600154905090565b6060600280548060200260200160405190810160405280929190818152602001828054801561061557602002820191906000526020600020905b8160009054906101000a900473ffffffffffffffffffffffffffffffffffffffff1673ffffffffffffffffffffffffffffffffffffffff16815260200190600101908083116105cb575b5050505050905090565b3373ffffffffffffffffffffffffffffffffffffffff16600660003373ffffffffffffffffffffffffffffffffffffffff1673ffffffffffffffffffffffffffffffffffffffff16815260200190815260200160002060000160009054906101000a900473ffffffffffffffffffffffffffffffffffffffff1673ffffffffffffffffffffffffffffffffffffffff161415151561074b576040517f08c379a000000000000000000000000000000000000000000000000000000000815260040180806020018281038252602b8152602001807f596f7520617265206e6f7420612062656e656669636961727920746f2077697481526020017f686472617720657468657200000000000000000000000000000000000000000081525060400191505060405180910390fd5b80600660003373ffffffffffffffffffffffffffffffffffffffff1673ffffffffffffffffffffffffffffffffffffffff168152602001908152602001600020600101541015151561082b576040517f08c379a00000000000000000000000000000000000000000000000000000000081526004018080602001828103825260338152602001807f596f752063616e6e6f74207769746864726177206d6f7265207468616e20313081526020017f25206f6620636f6e74726163742076616c75650000000000000000000000000081525060400191505060405180910390fd5b3373ffffffffffffffffffffffffffffffffffffffff166108fc829081150290604051600060405180830381858888f19350505050158015610871573d6000803e3d6000fd5b5080600660003373ffffffffffffffffffffffffffffffffffffffff1673ffffffffffffffffffffffffffffffffffffffff168152602001908152602001600020600101600082825403925050819055503373ffffffffffffffffffffffffffffffffffffffff167ffca010261c61503eba494501406a4775d0887b49857dc75c92d1cc92a20e4e83826040518082815260200191505060405180910390a250565b6000600360008373ffffffffffffffffffffffffffffffffffffffff1673ffffffffffffffffffffffffffffffffffffffff168152602001908152602001600020549050919050565b606060078054806020026020016040519081016040528092919081815260200182805480156109e057602002820191906000526020600020905b8160009054906101000a900473ffffffffffffffffffffffffffffffffffffffff1673ffffffffffffffffffffffffffffffffffffffff1681526020019060010190808311610996575b5050505050905090565b6109f2611561565b60001515600060149054906101000a900460ff161515141515610a7d576040517f08c379a000000000000000000000000000000000000000000000000000000000815260040180806020018281038252601a8152602001807f436f6e747269627574696f6e20706572696f6420636c6f73656400000000000081525060200191505060405180910390fd5b600a3073ffffffffffffffffffffffffffffffffffffffff1631811515610aa057fe5b048211151515610b3e576040517f08c379a000000000000000000000000000000000000000000000000000000000815260040180806020018281038252602c8152602001807f50726f706f73616c2063616e6e6f742065786365656420313025206f6620636f81526020017f6e74726163742076616c7565000000000000000000000000000000000000000081525060400191505060405180910390fd5b6000600460003373ffffffffffffffffffffffffffffffffffffffff1673ffffffffffffffffffffffffffffffffffffffff16815260200190815260200160002060009054906101000a900460ff1660ff16141515610c05576040517f08c379a00000000000000000000000000000000000000000000000000000000081526004018080602001828103825260138152602001807f50726f706f736572206973206120566f7465720000000000000000000000000081525060200191505060405180910390fd5b33816000019073ffffffffffffffffffffffffffffffffffffffff16908173ffffffffffffffffffffffffffffffffffffffff1681525050818160200181815250506040805190810160405280600681526020017f51554555454400000000000000000000000000000000000000000000000000008152508160e0018190525080600660003373ffffffffffffffffffffffffffffffffffffffff1673ffffffffffffffffffffffffffffffffffffffff16815260200190815260200160002060008201518160000160006101000a81548173ffffffffffffffffffffffffffffffffffffffff021916908373ffffffffffffffffffffffffffffffffffffffff1602179055506020820151816001015560408201518160020160006101000a81548160ff021916908360ff16021790555060608201518160020160016101000a81548160ff021916908360ff16021790555060808201518160020160026101000a81548160ff021916908360ff16021790555060a0820151816003019080519060200190610d959291906115c6565b5060c0820151816004019080519060200190610db29291906115c6565b5060e0820151816005019080519060200190610dcf929190611650565b5090505060073390806001815401808255809150509060018203906000526020600020016000909192909190916101000a81548173ffffffffffffffffffffffffffffffffffffffff021916908373ffffffffffffffffffffffffffffffffffffffff160217905550503373ffffffffffffffffffffffffffffffffffffffff167f9502d7618553b38b99edbe5d1547756cc9ab18db5ddd0674b051490ca4e2fb4c836040518082815260200191505060405180910390a25050565b60008060009054906101000a900473ffffffffffffffffffffffffffffffffffffffff16905090565b6000600460003373ffffffffffffffffffffffffffffffffffffffff1673ffffffffffffffffffffffffffffffffffffffff16815260200190815260200160002060009054906101000a900460ff1660ff1614151515610f1357600080fd5b600660008273ffffffffffffffffffffffffffffffffffffffff1673ffffffffffffffffffffffffffffffffffffffff1681526020019081526020016000206004013390806001815401808255809150509060018203906000526020600020016000909192909190916101000a81548173ffffffffffffffffffffffffffffffffffffffff021916908373ffffffffffffffffffffffffffffffffffffffff16021790555050600660008273ffffffffffffffffffffffffffffffffffffffff1673ffffffffffffffffffffffffffffffffffffffff168152602001908152602001600020600201600281819054906101000a900460ff168092919060010191906101000a81548160ff021916908360ff160217905550506002600660008373ffffffffffffffffffffffffffffffffffffffff1673ffffffffffffffffffffffffffffffffffffffff16815260200190815260200160002060020160029054906101000a900460ff1660ff161015156111bb576040805190810160405280600881526020017f52454a4543544544000000000000000000000000000000000000000000000000815250600660008373ffffffffffffffffffffffffffffffffffffffff1673ffffffffffffffffffffffffffffffffffffffff16815260200190815260200160002060050190805190602001906111129291906116d0565b508073ffffffffffffffffffffffffffffffffffffffff163373ffffffffffffffffffffffffffffffffffffffff167ff810df3b626605dbc005192086f67ae1f96ccb46b942d17dc90f159a1018298e600660008573ffffffffffffffffffffffffffffffffffffffff1673ffffffffffffffffffffffffffffffffffffffff168152602001908152602001600020600101546040518082815260200191505060405180910390a35b50565b6000600660008373ffffffffffffffffffffffffffffffffffffffff1673ffffffffffffffffffffffffffffffffffffffff168152602001908152602001600020600101549050919050565b6000600460003373ffffffffffffffffffffffffffffffffffffffff1673ffffffffffffffffffffffffffffffffffffffff16815260200190815260200160002060009054906101000a900460ff1660ff161415151561126957600080fd5b600660008273ffffffffffffffffffffffffffffffffffffffff1673ffffffffffffffffffffffffffffffffffffffff1681526020019081526020016000206003013390806001815401808255809150509060018203906000526020600020016000909192909190916101000a81548173ffffffffffffffffffffffffffffffffffffffff021916908373ffffffffffffffffffffffffffffffffffffffff16021790555050600660008273ffffffffffffffffffffffffffffffffffffffff1673ffffffffffffffffffffffffffffffffffffffff168152602001908152602001600020600201600181819054906101000a900460ff168092919060010191906101000a81548160ff021916908360ff160217905550506002600660008373ffffffffffffffffffffffffffffffffffffffff1673ffffffffffffffffffffffffffffffffffffffff16815260200190815260200160002060020160019054906101000a900460ff1660ff1610151561155e576040805190810160405280600881526020017f415050524f564544000000000000000000000000000000000000000000000000815250600660008373ffffffffffffffffffffffffffffffffffffffff1673ffffffffffffffffffffffffffffffffffffffff16815260200190815260200160002060050190805190602001906114689291906116d0565b50600660008273ffffffffffffffffffffffffffffffffffffffff1673ffffffffffffffffffffffffffffffffffffffff16815260200190815260200160002060010154600154036001819055508073ffffffffffffffffffffffffffffffffffffffff163373ffffffffffffffffffffffffffffffffffffffff167f6785be290ed8ae6f56ea596a5b8b77b39d1c96fa2f2d17de1c58be88bb67af4d600660008573ffffffffffffffffffffffffffffffffffffffff1673ffffffffffffffffffffffffffffffffffffffff168152602001908152602001600020600101546040518082815260200191505060405180910390a35b50565b61010060405190810160405280600073ffffffffffffffffffffffffffffffffffffffff16815260200160008152602001600060ff168152602001600060ff168152602001600060ff1681526020016060815260200160608152602001606081525090565b82805482825590600052602060002090810192821561163f579160200282015b8281111561163e5782518260006101000a81548173ffffffffffffffffffffffffffffffffffffffff021916908373ffffffffffffffffffffffffffffffffffffffff160217905550916020019190600101906115e6565b5b50905061164c9190611750565b5090565b828054600181600116156101000203166002900490600052602060002090601f016020900481019282601f1061169157805160ff19168380011785556116bf565b828001600101855582156116bf579182015b828111156116be5782518255916020019190600101906116a3565b5b5090506116cc9190611793565b5090565b828054600181600116156101000203166002900490600052602060002090601f016020900481019282601f1061171157805160ff191683800117855561173f565b8280016001018555821561173f579182015b8281111561173e578251825591602001919060010190611723565b5b50905061174c9190611793565b5090565b61179091905b8082111561178c57600081816101000a81549073ffffffffffffffffffffffffffffffffffffffff021916905550600101611756565b5090565b90565b6117b591905b808211156117b1576000816000905550600101611799565b5090565b905600a165627a7a723058205076cb3f1a6774928f771fbdeac197d916b06374a7f1dd24045a353615d4292c0029",
  "source": "pragma solidity ^0.4.20;\n\ncontract MultiSigContract1 {\n\n    address _owner = msg.sender;\n    bool private contributionsOpen = true;\n    uint totalContribution = 0;\n    address[] contributorList;\n    mapping( address => uint) contributions;\n    mapping(address => uint8) voterList;\n    address[] voters = [ 0xfA3C6a1d480A14c546F12cdBB6d1BaCBf02A1610, 0x2f47343208d8Db38A64f49d7384Ce70367FC98c0, 0x7c0e7b2418141F492653C6bF9ceD144c338Ba740 ];\n    //address[] voters = [ 0x9f3767f1d2a439a504479d9275aae1dfbe207818, 0x87c402146e30819d55d7126cff41012b788701d6, 0x44a0f513fb22016eee2de6ead8a852587e741340 ];\n\n    struct Proposal{\n        address beneficiary;\n        uint amount;\n        uint8 voteCount;\n        uint8 approveCount;\n        uint8 rejectCount;\n        address[] approvedVoters;\n        address[] rejectedVoters;\n        string status;\n    }\n\n    mapping( address => Proposal ) beneficiaryProposal;\n    address[] openProposalList;\n\n    modifier isOwner {\n        require(msg.sender == _owner);\n        _;\n    }\n\n    modifier isValidVoter {\n        require(voterList[msg.sender] != 0);\n        _;\n    }\n\n  /*\n   * This event should be dispatched whenever the contract receives\n   * any contribution (Ethers).\n   */\n    event ReceivedContribution(address indexed _contributor, uint value);\n    event ProposalSubmitted(address indexed _beneficiary, uint _value);\n    event ProposalApproved(address indexed _approver, address indexed _beneficiary, uint _value);\n    event ProposalRejected(address indexed _approver, address indexed _beneficiary, uint _value);\n    event WithdrawPerformed(address indexed beneficiary, uint _value);\n\n\n    /*\n   * A fallback function to receive contributions\n   */\n    function () public payable {\n        // Check if the contribution is open\n        require(contributionsOpen == true);\n        contributions[msg.sender] += msg.value;\n        totalContribution += msg.value;\n        contributorList.push(msg.sender);\n        emit ReceivedContribution(msg.sender, msg.value);\n    }\n\n    constructor () public {\n        for (uint i = 0; i < voters.length; i++){\n            voterList[voters[i]] = 1;\n        }\n    }\n\n  /*\n   * List the addresses of the contributors, which are people that sent\n   * Ether to this contract.\n   */\n    function listContributors() external view returns (address[]){\n        return contributorList;\n    }\n\n  /*\n   * Returns the amount sent by the given contributor.\n   */\n    function getContributorAmount(address _contributor) external view returns (uint){\n        return contributions[_contributor];\n    }\n\n\n  /*\n   * When this contract is initially created, it's in the state \n   * \"Accepting contributions\". No proposals can be sent, no withdraw\n   * and no vote can be made while in this state. After this function\n   * is called, the contract state changes to \"Active\" in which it will\n   * not accept contributions anymore and will accept all other functions\n   * (submit proposal, vote, withdraw)\n   */\n    function endContributionPeriod() external  isOwner returns(bool){\n        contributionsOpen = false;\n        return contributionsOpen;\n    }\n\n  /*\n   * Sends a withdraw proposal to the contract. The beneficiary would\n   * be \"_beneficiary\" and if approved, this address will be able to\n   * withdraw \"value\" Ethers.\n   *\n   * This contract should be able to handle many proposals at once.\n   */\n    function submitProposal(uint _value) external{\n        //Make sure the contribution flag is open\n        require(contributionsOpen == false, \"Contribution period closed\");\n        //Value cannot be greater than 10%\n        require(_value <= address(this).balance/10, \"Proposal cannot exceed 10% of contract value\");\n        //Signer cannot submit a proposal\n        require(voterList[msg.sender] == 0, \"Proposer is a Voter\");\n\n        Proposal memory proposal;\n        proposal.beneficiary = msg.sender;\n        proposal.amount = _value; \n        proposal.status = \"QUEUED\";      \n        beneficiaryProposal[msg.sender] = proposal;\n\n        openProposalList.push(msg.sender);\n\n        emit ProposalSubmitted(msg.sender, _value);\n    }\n\n  /*\n   * Returns a list of beneficiaries for the open proposals. Open\n   * proposal is the one in which the majority of voters have not\n   * voted yet.\n   */\n    function listOpenBeneficiariesProposals() external view returns (address[]){\n        return openProposalList;\n    }\n\n  /*\n   * Returns the value requested by the given beneficiary in his proposal.\n   */\n    function getBeneficiaryProposal(address _beneficiary) external view returns (uint){\n        return beneficiaryProposal[_beneficiary].amount;\n    }\n\n  /*\n   * Approve the proposal for the given beneficiary\n   */\n    function approve(address _beneficiary) external isValidVoter{\n        //require(_beneficiary != address(0x0),\"Beneficiary should be a valid address\");\n        beneficiaryProposal[_beneficiary].approvedVoters.push(msg.sender);\n        beneficiaryProposal[_beneficiary].approveCount++;\n\n        if(beneficiaryProposal[_beneficiary].approveCount >= 2){\n            beneficiaryProposal[_beneficiary].status = \"APPROVED\";\n            totalContribution = totalContribution - beneficiaryProposal[_beneficiary].amount; \n            emit ProposalApproved(msg.sender, _beneficiary, beneficiaryProposal[_beneficiary].amount);\n        }    \n    }\n\n  /*\n   * Reject the proposal of the given beneficiary\n   */\n    function reject(address _beneficiary) external isValidVoter{\n        //require(_beneficiary != address(0x0),\"Beneficiary should be a valid address\");\n        beneficiaryProposal[_beneficiary].rejectedVoters.push(msg.sender);\n        beneficiaryProposal[_beneficiary].rejectCount++;\n        if(beneficiaryProposal[_beneficiary].rejectCount >= 2){\n            beneficiaryProposal[_beneficiary].status = \"REJECTED\";\n            emit ProposalRejected(msg.sender, _beneficiary, beneficiaryProposal[_beneficiary].amount);        \n        }    \n    }\n    \n\n  /*\n   * Withdraw the specified value from the wallet.\n   * The beneficiary can withdraw any value less than or equal the value\n   * he/she proposed. If he/she wants to withdraw more, a new proposal\n   * should be sent.\n   *\n   */\n    function withdraw(uint _value) external{\n\n        //check if he is a real beneficiary\n        require(beneficiaryProposal[msg.sender].beneficiary != msg.sender, \"You are not a beneficiary to withdraw ether\");\n  \n        //Check the amount which should not exceed sanctioned amount\n        require(beneficiaryProposal[msg.sender].amount >= _value, \"You cannot withdraw more than 10% of contract value\");\n\n        msg.sender.transfer(_value);\n        beneficiaryProposal[msg.sender].amount -= _value;\n        emit WithdrawPerformed(msg.sender, _value);\n    }\n\n    function getTotalContribution() public view returns(uint){\n        return totalContribution;\n    }\n\n    function owner() public view returns(address) {\n        return _owner;\n    }\n\n}\n\n// signer cannot submit a proposal\n// beneficiary partial amount\n// majority approve the proposal",
  "sourcePath": "/opt/projects/multisigwallet-ui/contracts/MultiSigContract1.sol",
  "compiler": {
    "name": "solc",
    "version": "0.4.24+commit.e67f0147.Emscripten.clang"
  },
  "schemaVersion": "2.0.1",
  "updatedAt": "2018-08-24T13:15:46.525Z"
}