{
  "contractName": "MultiSigContract",
  "abi": [
    {
      "constant": true,
      "inputs": [
        {
          "name": "",
          "type": "address"
        }
      ],
      "name": "contributionsMap",
      "outputs": [
        {
          "name": "",
          "type": "uint256"
        }
      ],
      "payable": false,
      "stateMutability": "view",
      "type": "function"
    },
    {
      "constant": true,
      "inputs": [
        {
          "name": "",
          "type": "address"
        }
      ],
      "name": "signerList",
      "outputs": [
        {
          "name": "",
          "type": "bool"
        }
      ],
      "payable": false,
      "stateMutability": "view",
      "type": "function"
    },
    {
      "constant": true,
      "inputs": [],
      "name": "availableContributions",
      "outputs": [
        {
          "name": "",
          "type": "uint256"
        }
      ],
      "payable": false,
      "stateMutability": "view",
      "type": "function"
    },
    {
      "inputs": [],
      "payable": false,
      "stateMutability": "nonpayable",
      "type": "constructor"
    },
    {
      "payable": true,
      "stateMutability": "payable",
      "type": "fallback"
    },
    {
      "anonymous": false,
      "inputs": [
        {
          "indexed": true,
          "name": "_contributor",
          "type": "address"
        },
        {
          "indexed": false,
          "name": "_valueInWei",
          "type": "uint256"
        }
      ],
      "name": "ReceivedContribution",
      "type": "event"
    },
    {
      "anonymous": false,
      "inputs": [
        {
          "indexed": true,
          "name": "_beneficiary",
          "type": "address"
        },
        {
          "indexed": false,
          "name": "_valueInWei",
          "type": "uint256"
        }
      ],
      "name": "ProposalSubmitted",
      "type": "event"
    },
    {
      "anonymous": false,
      "inputs": [
        {
          "indexed": true,
          "name": "_approver",
          "type": "address"
        },
        {
          "indexed": true,
          "name": "_beneficiary",
          "type": "address"
        },
        {
          "indexed": false,
          "name": "_valueInWei",
          "type": "uint256"
        }
      ],
      "name": "ProposalApproved",
      "type": "event"
    },
    {
      "anonymous": false,
      "inputs": [
        {
          "indexed": true,
          "name": "_rejecter",
          "type": "address"
        },
        {
          "indexed": true,
          "name": "_beneficiary",
          "type": "address"
        },
        {
          "indexed": false,
          "name": "_valueInWei",
          "type": "uint256"
        }
      ],
      "name": "ProposalRejected",
      "type": "event"
    },
    {
      "anonymous": false,
      "inputs": [
        {
          "indexed": true,
          "name": "_beneficiary",
          "type": "address"
        },
        {
          "indexed": false,
          "name": "_valueInWei",
          "type": "uint256"
        }
      ],
      "name": "WithdrawPerformed",
      "type": "event"
    },
    {
      "constant": true,
      "inputs": [
        {
          "name": "_beneficiary",
          "type": "address"
        }
      ],
      "name": "isProposalClosed",
      "outputs": [
        {
          "name": "",
          "type": "bool"
        }
      ],
      "payable": false,
      "stateMutability": "view",
      "type": "function"
    },
    {
      "constant": true,
      "inputs": [],
      "name": "owner",
      "outputs": [
        {
          "name": "",
          "type": "address"
        }
      ],
      "payable": false,
      "stateMutability": "view",
      "type": "function"
    },
    {
      "constant": false,
      "inputs": [],
      "name": "endContributionPeriod",
      "outputs": [],
      "payable": false,
      "stateMutability": "nonpayable",
      "type": "function"
    },
    {
      "constant": true,
      "inputs": [],
      "name": "listContributors",
      "outputs": [
        {
          "name": "",
          "type": "address[]"
        }
      ],
      "payable": false,
      "stateMutability": "view",
      "type": "function"
    },
    {
      "constant": true,
      "inputs": [
        {
          "name": "_contributor",
          "type": "address"
        }
      ],
      "name": "getContributorAmount",
      "outputs": [
        {
          "name": "",
          "type": "address"
        },
        {
          "name": "",
          "type": "uint256"
        }
      ],
      "payable": false,
      "stateMutability": "view",
      "type": "function"
    },
    {
      "constant": true,
      "inputs": [],
      "name": "getContractStatus",
      "outputs": [
        {
          "name": "",
          "type": "bool"
        }
      ],
      "payable": false,
      "stateMutability": "view",
      "type": "function"
    },
    {
      "constant": true,
      "inputs": [],
      "name": "getTotalContributions",
      "outputs": [
        {
          "name": "",
          "type": "uint256"
        }
      ],
      "payable": false,
      "stateMutability": "view",
      "type": "function"
    },
    {
      "constant": false,
      "inputs": [
        {
          "name": "_valueInWei",
          "type": "uint256"
        }
      ],
      "name": "submitProposal",
      "outputs": [],
      "payable": true,
      "stateMutability": "payable",
      "type": "function"
    },
    {
      "constant": false,
      "inputs": [
        {
          "name": "_beneficiary",
          "type": "address"
        }
      ],
      "name": "approve",
      "outputs": [],
      "payable": false,
      "stateMutability": "nonpayable",
      "type": "function"
    },
    {
      "constant": false,
      "inputs": [
        {
          "name": "_beneficiary",
          "type": "address"
        }
      ],
      "name": "reject",
      "outputs": [],
      "payable": false,
      "stateMutability": "nonpayable",
      "type": "function"
    },
    {
      "constant": false,
      "inputs": [
        {
          "name": "beneficiary",
          "type": "address"
        },
        {
          "name": "_valueInWei",
          "type": "uint256"
        }
      ],
      "name": "withdraw",
      "outputs": [],
      "payable": false,
      "stateMutability": "nonpayable",
      "type": "function"
    },
    {
      "constant": true,
      "inputs": [
        {
          "name": "_signer",
          "type": "address"
        },
        {
          "name": "_beneficiary",
          "type": "address"
        }
      ],
      "name": "getSignerVote",
      "outputs": [
        {
          "name": "",
          "type": "uint256"
        }
      ],
      "payable": false,
      "stateMutability": "view",
      "type": "function"
    },
    {
      "constant": true,
      "inputs": [],
      "name": "listOpenBeneficiariesProposals",
      "outputs": [
        {
          "name": "",
          "type": "address[]"
        }
      ],
      "payable": false,
      "stateMutability": "view",
      "type": "function"
    },
    {
      "constant": true,
      "inputs": [
        {
          "name": "_beneficiary",
          "type": "address"
        }
      ],
      "name": "getBeneficiaryProposal",
      "outputs": [
        {
          "name": "",
          "type": "uint256"
        }
      ],
      "payable": false,
      "stateMutability": "view",
      "type": "function"
    },
    {
      "constant": true,
      "inputs": [
        {
          "name": "proposerAddress",
          "type": "address"
        }
      ],
      "name": "getProposalDetails",
      "outputs": [
        {
          "name": "",
          "type": "address"
        },
        {
          "name": "",
          "type": "uint256"
        },
        {
          "name": "",
          "type": "uint256"
        },
        {
          "name": "",
          "type": "uint256"
        },
        {
          "name": "",
          "type": "uint256"
        }
      ],
      "payable": false,
      "stateMutability": "view",
      "type": "function"
    },
    {
      "constant": true,
      "inputs": [],
      "name": "getProposalAddressList",
      "outputs": [
        {
          "name": "",
          "type": "address[]"
        },
        {
          "name": "",
          "type": "address[]"
        }
      ],
      "payable": false,
      "stateMutability": "view",
      "type": "function"
    }
  ],
  "bytecode": "0x6080604052336000806101000a81548173ffffffffffffffffffffffffffffffffffffffff021916908373ffffffffffffffffffffffffffffffffffffffff16021790555060008060146101000a81548160ff02191690831515021790555034801561006a57600080fd5b50611b008061007a6000396000f300608060405260043610610107576000357c0100000000000000000000000000000000000000000000000000000000900463ffffffff16806302b11082146103405780630d65830114610357578063237819fe146103f65780632e5184641461046257806342fd96b4146104ec57806346fd1df11461054357806356f6509b1461059e57806359109b6414610652578063736d95aa146106be57806386b81eb6146106de5780638da5cb5b14610755578063ab0da5a9146107ac578063c032846b146107ef578063c651aada1461081e578063daea85c514610875578063ddf556d0146108b8578063ea32ab55146108e3578063f3fef3a31461090e578063fc4bae3d1461095b575b60008060001515600060149054906101000a900460ff16151514151561012c57600080fd5b60003411151561013b57600080fd5b61018d34600560003373ffffffffffffffffffffffffffffffffffffffff1673ffffffffffffffffffffffffffffffffffffffff168152602001908152602001600020546109b690919063ffffffff16565b600560003373ffffffffffffffffffffffffffffffffffffffff1673ffffffffffffffffffffffffffffffffffffffff168152602001908152602001600020819055506101e5346003546109b690919063ffffffff16565b60038190555060009150600090505b600980549050811015610280573373ffffffffffffffffffffffffffffffffffffffff1660098281548110151561022757fe5b9060005260206000200160009054906101000a900473ffffffffffffffffffffffffffffffffffffffff1673ffffffffffffffffffffffffffffffffffffffff16141561027357600191505b80806001019150506101f4565b8115156102ee5760093390806001815401808255809150509060018203906000526020600020016000909192909190916101000a81548173ffffffffffffffffffffffffffffffffffffffff021916908373ffffffffffffffffffffffffffffffffffffffff160217905550505b3373ffffffffffffffffffffffffffffffffffffffff167f4af4040804455d5519363ab32562d3354dc05571e414cec4d799a581d6e6b3a7346040518082815260200191505060405180910390a25050005b34801561034c57600080fd5b506103556109d2565b005b34801561036357600080fd5b50610398600480360381019080803573ffffffffffffffffffffffffffffffffffffffff169060200190929190505050610a2b565b604051808673ffffffffffffffffffffffffffffffffffffffff1673ffffffffffffffffffffffffffffffffffffffff1681526020018581526020018481526020018381526020018281526020019550505050505060405180910390f35b34801561040257600080fd5b5061040b610af6565b6040518080602001828103825283818151815260200191508051906020019060200280838360005b8381101561044e578082015181840152602081019050610433565b505050509050019250505060405180910390f35b34801561046e57600080fd5b506104a3600480360381019080803573ffffffffffffffffffffffffffffffffffffffff169060200190929190505050610b84565b604051808373ffffffffffffffffffffffffffffffffffffffff1673ffffffffffffffffffffffffffffffffffffffff1681526020018281526020019250505060405180910390f35b3480156104f857600080fd5b5061052d600480360381019080803573ffffffffffffffffffffffffffffffffffffffff169060200190929190505050610bd1565b6040518082815260200191505060405180910390f35b34801561054f57600080fd5b50610584600480360381019080803573ffffffffffffffffffffffffffffffffffffffff169060200190929190505050610be9565b604051808215151515815260200191505060405180910390f35b3480156105aa57600080fd5b506105b3610c09565b604051808060200180602001838103835285818151815260200191508051906020019060200280838360005b838110156105fa5780820151818401526020810190506105df565b50505050905001838103825284818151815260200191508051906020019060200280838360005b8381101561063c578082015181840152602081019050610621565b5050505090500194505050505060405180910390f35b34801561065e57600080fd5b50610667610e88565b6040518080602001828103825283818151815260200191508051906020019060200280838360005b838110156106aa57808201518184015260208101905061068f565b505050509050019250505060405180910390f35b6106dc60048036038101908080359060200190929190505050611083565b005b3480156106ea57600080fd5b5061073f600480360381019080803573ffffffffffffffffffffffffffffffffffffffff169060200190929190803573ffffffffffffffffffffffffffffffffffffffff1690602001909291905050506112c1565b6040518082815260200191505060405180910390f35b34801561076157600080fd5b5061076a611368565b604051808273ffffffffffffffffffffffffffffffffffffffff1673ffffffffffffffffffffffffffffffffffffffff16815260200191505060405180910390f35b3480156107b857600080fd5b506107ed600480360381019080803573ffffffffffffffffffffffffffffffffffffffff169060200190929190505050611391565b005b3480156107fb57600080fd5b506108046114fa565b604051808215151515815260200191505060405180910390f35b34801561082a57600080fd5b5061085f600480360381019080803573ffffffffffffffffffffffffffffffffffffffff169060200190929190505050611510565b6040518082815260200191505060405180910390f35b34801561088157600080fd5b506108b6600480360381019080803573ffffffffffffffffffffffffffffffffffffffff169060200190929190505050611579565b005b3480156108c457600080fd5b506108cd611768565b6040518082815260200191505060405180910390f35b3480156108ef57600080fd5b506108f8611772565b6040518082815260200191505060405180910390f35b34801561091a57600080fd5b50610959600480360381019080803573ffffffffffffffffffffffffffffffffffffffff16906020019092919080359060200190929190505050611778565b005b34801561096757600080fd5b5061099c600480360381019080803573ffffffffffffffffffffffffffffffffffffffff169060200190929190505050611918565b604051808215151515815260200191505060405180910390f35b600081830190508281101515156109c957fe5b80905092915050565b60001515600060149054906101000a900460ff1615151415156109f457600080fd5b6000600354111515610a0557600080fd5b6003546004819055506001600060146101000a81548160ff021916908315150217905550565b600080600080600080600a600760008973ffffffffffffffffffffffffffffffffffffffff1673ffffffffffffffffffffffffffffffffffffffff16815260200190815260200160002054815481101515610a8257fe5b9060005260206000209060050201905086816000015482600201548360030154600860003373ffffffffffffffffffffffffffffffffffffffff1673ffffffffffffffffffffffffffffffffffffffff16815260200190815260200160002054955095509550955095505091939590929450565b60606009805480602002602001604051908101604052809291908181526020018280548015610b7a57602002820191906000526020600020905b8160009054906101000a900473ffffffffffffffffffffffffffffffffffffffff1673ffffffffffffffffffffffffffffffffffffffff1681526020019060010190808311610b30575b5050505050905090565b60008082600560008573ffffffffffffffffffffffffffffffffffffffff1673ffffffffffffffffffffffffffffffffffffffff1681526020019081526020016000205491509150915091565b60056020528060005260406000206000915090505481565b60066020528060005260406000206000915054906101000a900460ff1681565b6060806060806000806000610c1c611a95565b600a80549050604051908082528060200260200182016040528015610c505781602001602082028038833980820191505090505b509550600a80549050604051908082528060200260200182016040528015610c875781602001602082028038833980820191505090505b5094506000935060009250600091505b600a80549050821015610e7857600a82815481101515610cb357fe5b906000526020600020906005020160806040519081016040529081600082015481526020016001820160009054906101000a900473ffffffffffffffffffffffffffffffffffffffff1673ffffffffffffffffffffffffffffffffffffffff1673ffffffffffffffffffffffffffffffffffffffff168152602001600282015481526020016003820154815250509050600073ffffffffffffffffffffffffffffffffffffffff16816020015173ffffffffffffffffffffffffffffffffffffffff16141515610e6b576002816060015111158015610d9757506002816040015111155b15610df45780602001518685815181101515610daf57fe5b9060200190602002019073ffffffffffffffffffffffffffffffffffffffff16908173ffffffffffffffffffffffffffffffffffffffff168152505083806001019450505b60028160600151101580610e0d57506002816040015110155b15610e6a5780602001518584815181101515610e2557fe5b9060200190602002019073ffffffffffffffffffffffffffffffffffffffff16908173ffffffffffffffffffffffffffffffffffffffff168152505082806001019350505b5b8180600101925050610c97565b8585975097505050505050509091565b60608060008060006060600a80549050604051908082528060200260200182016040528015610ec65781602001602082028038833980820191505090505b50945060009350610ee36002600154611a2e90919063ffffffff16565b826003015411158015610f0f5750610f076002600154611a2e90919063ffffffff16565b826002015411155b15610f8c578160010160009054906101000a900473ffffffffffffffffffffffffffffffffffffffff168585815181101515610f4757fe5b9060200190602002019073ffffffffffffffffffffffffffffffffffffffff16908173ffffffffffffffffffffffffffffffffffffffff168152505083806001019450505b600092505b600a8054905083101561107857600a83815481101515610fad57fe5b9060005260206000209060050201915083604051908082528060200260200182016040528015610fec5781602001602082028038833980820191505090505b509050600092505b8383101561106b57848381518110151561100a57fe5b90602001906020020151818481518110151561102257fe5b9060200190602002019073ffffffffffffffffffffffffffffffffffffffff16908173ffffffffffffffffffffffffffffffffffffffff16815250508280600101935050610ff4565b8280600101935050610f91565b809550505050505090565b60011515600060149054906101000a900460ff1615151415156110a557600080fd5b6000600760003373ffffffffffffffffffffffffffffffffffffffff1673ffffffffffffffffffffffffffffffffffffffff1681526020019081526020016000205414806110f857506110f733611918565b5b151561110357600080fd5b8060035461111b600a83611a4490919063ffffffff16565b1115151561112857600080fd5b600454811115151561113957600080fd5b600a6080604051908101604052808481526020013373ffffffffffffffffffffffffffffffffffffffff168152602001600081526020016000815250908060018154018082558091505090600182039060005260206000209060050201600090919290919091506000820151816000015560208201518160010160006101000a81548173ffffffffffffffffffffffffffffffffffffffff021916908373ffffffffffffffffffffffffffffffffffffffff16021790555060408201518160020155606082015181600301555050506001600a8054905003600760003373ffffffffffffffffffffffffffffffffffffffff1673ffffffffffffffffffffffffffffffffffffffff1681526020019081526020016000208190555061126982600454611a7c90919063ffffffff16565b6004819055503373ffffffffffffffffffffffffffffffffffffffff167f9502d7618553b38b99edbe5d1547756cc9ab18db5ddd0674b051490ca4e2fb4c836040518082815260200191505060405180910390a25050565b6000600a600760008473ffffffffffffffffffffffffffffffffffffffff1673ffffffffffffffffffffffffffffffffffffffff1681526020019081526020016000205481548110151561131157fe5b906000526020600020906005020160040160008473ffffffffffffffffffffffffffffffffffffffff1673ffffffffffffffffffffffffffffffffffffffff16815260200190815260200160002054905092915050565b60008060009054906101000a900473ffffffffffffffffffffffffffffffffffffffff16905090565b6000600a600760008473ffffffffffffffffffffffffffffffffffffffff1673ffffffffffffffffffffffffffffffffffffffff168152602001908152602001600020548154811015156113e157fe5b9060005260206000209060050201905060028160040160003373ffffffffffffffffffffffffffffffffffffffff1673ffffffffffffffffffffffffffffffffffffffff1681526020019081526020016000208190555080600301600081548092919060010191905055506114626002600154611a2e90919063ffffffff16565b8160030154111561148d5761148681600001546004546109b690919063ffffffff16565b6004819055505b8173ffffffffffffffffffffffffffffffffffffffff163373ffffffffffffffffffffffffffffffffffffffff167ff810df3b626605dbc005192086f67ae1f96ccb46b942d17dc90f159a1018298e83600001546040518082815260200191505060405180910390a35050565b60008060149054906101000a900460ff16905090565b6000600a600760008473ffffffffffffffffffffffffffffffffffffffff1673ffffffffffffffffffffffffffffffffffffffff1681526020019081526020016000205481548110151561156057fe5b9060005260206000209060050201600001549050919050565b6000600a600760008473ffffffffffffffffffffffffffffffffffffffff1673ffffffffffffffffffffffffffffffffffffffff168152602001908152602001600020548154811015156115c957fe5b9060005260206000209060050201905060018160040160003373ffffffffffffffffffffffffffffffffffffffff1673ffffffffffffffffffffffffffffffffffffffff16815260200190815260200160002081905550611638600182600201546109b690919063ffffffff16565b81600201819055506116566002600154611a2e90919063ffffffff16565b816002015411156116fb576116b78160000154600860008573ffffffffffffffffffffffffffffffffffffffff1673ffffffffffffffffffffffffffffffffffffffff168152602001908152602001600020546109b690919063ffffffff16565b600860008473ffffffffffffffffffffffffffffffffffffffff1673ffffffffffffffffffffffffffffffffffffffff168152602001908152602001600020819055505b8173ffffffffffffffffffffffffffffffffffffffff163373ffffffffffffffffffffffffffffffffffffffff167f6785be290ed8ae6f56ea596a5b8b77b39d1c96fa2f2d17de1c58be88bb67af4d83600001546040518082815260200191505060405180910390a35050565b6000600354905090565b60045481565b60011515600060149054906101000a900460ff16151514151561179a57600080fd5b8080600860003373ffffffffffffffffffffffffffffffffffffffff1673ffffffffffffffffffffffffffffffffffffffff16815260200190815260200160002054101515156117e957600080fd5b61183b82600860003373ffffffffffffffffffffffffffffffffffffffff1673ffffffffffffffffffffffffffffffffffffffff16815260200190815260200160002054611a7c90919063ffffffff16565b600860003373ffffffffffffffffffffffffffffffffffffffff1673ffffffffffffffffffffffffffffffffffffffff168152602001908152602001600020819055508273ffffffffffffffffffffffffffffffffffffffff166108fc839081150290604051600060405180830381858888f193505050501580156118c4573d6000803e3d6000fd5b508273ffffffffffffffffffffffffffffffffffffffff167ffca010261c61503eba494501406a4775d0887b49857dc75c92d1cc92a20e4e83836040518082815260200191505060405180910390a2505050565b60006119306002600154611a2e90919063ffffffff16565b600a600760008573ffffffffffffffffffffffffffffffffffffffff1673ffffffffffffffffffffffffffffffffffffffff1681526020019081526020016000205481548110151561197e57fe5b906000526020600020906005020160030154111561199f5760019050611a29565b6119b56002600154611a2e90919063ffffffff16565b600a600760008573ffffffffffffffffffffffffffffffffffffffff1673ffffffffffffffffffffffffffffffffffffffff16815260200190815260200160002054815481101515611a0357fe5b9060005260206000209060050201600201541115611a245760019050611a29565b600090505b919050565b60008183811515611a3b57fe5b04905092915050565b600080831415611a575760009050611a76565b8183029050818382811515611a6857fe5b04141515611a7257fe5b8090505b92915050565b6000828211151515611a8a57fe5b818303905092915050565b60806040519081016040528060008152602001600073ffffffffffffffffffffffffffffffffffffffff168152602001600081526020016000815250905600a165627a7a72305820baf6c8b6c17b41a787ec763a89e14ed24dc0f2cf14a8349ffe3c69321a1c384b0029",
  "source": "pragma solidity ^0.4.20;\n\ncontract MultiSigContract {\n    using SafeMath for uint256;\n\n    // Variables\n    address private contractOwner = msg.sender;\n    bool private isContractActive = false;\n    uint private signerCount;\n    uint private contributorCount;\n    uint private totalContributions;\n    uint public availableContributions;\n\n    mapping (address => uint) public contributionsMap;\n    mapping (address => bool) public signerList;\n    mapping(address => uint) _beneficiaryProposalIndex;  \n    mapping (address => uint) amountToWithdraw;\n    address[] contributorsList;\n    \n    Proposal[] proposals;\n\n    struct Proposal {\n        uint _valueInWei;\n        address _beneficiary;\n        uint approvalCount;\n        uint rejectedCount;\n        mapping (address => uint) sigatures;\n    }\n\n    // Constructor\n    constructor()  public { \n        /*       \n        signerList[0xfa3c6a1d480a14c546f12cdbb6d1bacbf02a1610] = true;\n        signerList[0x2f47343208d8db38a64f49d7384ce70367fc98c0] = true;\n        signerList[0x7c0e7b2418141f492653c6bf9ced144c338ba740] = true;\n        //signerList[0x391a861a4049a3f55c8a9260fa9ec2089157559b] = true;\n        //signerList[0x0523475fdd073de39148830c25c936252f611679] = true;\n        //signerList[0xf6e793afdfbe34e57e783352d1e046ad74db9fa1] = true;\n        proposals.push(Proposal(10000000000000000000, 0x4a321b274338988d8ae5ea794ac1d5999f042002, 1, 2));\n        proposals.push(Proposal(3000000000000000000, 0x57913bb2e7d6feaf3aae607875d44a0d744fa8b9, 2, 0));\n        proposals.push(Proposal(6000000000000000000, 0xa04dad4445126b79aaaae2f4d0201749945ff3e2, 0, 0));\n        _beneficiaryProposalIndex[0x4a321b274338988d8ae5ea794ac1d5999f042002] = 0;\n        _beneficiaryProposalIndex[0x57913bb2e7d6feaf3aae607875d44a0d744fa8b9] = 1;\n        _beneficiaryProposalIndex[0xa04dad4445126b79aaaae2f4d0201749945ff3e2] = 2;\n\n        signerCount = signerCount.add(3);\n        */  \n    }\n\n    // Events to trigger where ever state changes happen\n    event ReceivedContribution(address indexed _contributor, uint _valueInWei);\n    event ProposalSubmitted(address indexed _beneficiary, uint _valueInWei);\n    event ProposalApproved(address indexed _approver, address indexed _beneficiary, uint _valueInWei);\n    event ProposalRejected(address indexed _rejecter, address indexed _beneficiary, uint _valueInWei);\n    event WithdrawPerformed(address indexed _beneficiary, uint _valueInWei);\n\n    // Modifiers \n    modifier onlyifContractStatusActive() {\n        require(isContractActive == true);\n        _;\n    }\n    modifier acceptContributions() {\n        require(isContractActive == false);\n        _;\n    }\n    modifier onlySigner() {\n        //require(signerList[msg.sender], \"You are not a signer!!\");\n        require(1 == 1, \"You are not a signer!!\");\n        _;\n    }\n    \n    modifier onlyIfValueAllowed(uint _amount) {\n        require(_amount.mul(10) <= totalContributions);\n        require(_amount <= availableContributions);\n        _;   \n    }\n        \n    modifier onlyIfNoOpenProposal() {\n        require(_beneficiaryProposalIndex[msg.sender] == 0 || isProposalClosed(msg.sender));\n        _;\n    }\n        \n    modifier onlyIfNotVoted(address _beneficiary) {\n        require(_beneficiaryProposalIndex[_beneficiary] > 0);\n        require(proposals[_beneficiaryProposalIndex[_beneficiary]].sigatures[msg.sender] == 0);\n        _;\n    }\n        \n    modifier onlyIfWithdrawable(uint _amountToWithdraw) {        \n        require(amountToWithdraw[msg.sender] >= _amountToWithdraw);\n        _;\n    }\n        \n    function isProposalClosed(address _beneficiary) public view returns (bool) {\n        if(proposals[_beneficiaryProposalIndex[_beneficiary]].rejectedCount > signerCount.div(2)) {\n            return true;\n        }\n        if(proposals[_beneficiaryProposalIndex[_beneficiary]].approvalCount > signerCount.div(2)) {\n            return true;\n        }   \n        return false;     \n    }\n        \n\n    function owner() external view returns(address){\n        return contractOwner;\n    }\n\n    function () payable public acceptContributions {\n        require(msg.value > 0);\n        contributionsMap[msg.sender] = contributionsMap[msg.sender].add(msg.value);\n        totalContributions = totalContributions.add(msg.value);\n        bool alreadyExists = false;\n        for(uint i = 0; i< contributorsList.length; i++){\n            if(contributorsList[i] == msg.sender){\n                alreadyExists = true;\n            }\n        }\n        if(!alreadyExists){\n            contributorsList.push(msg.sender);\n        }\n        emit ReceivedContribution(msg.sender, msg.value);\n    }\n\n    //function endContributionPeriod() acceptContributions onlySigner external {\n    function endContributionPeriod() acceptContributions external {\n\n        require(totalContributions > 0);\n        availableContributions = totalContributions;\n        isContractActive = true;\n    }\n\n    function listContributors() external view returns (address[]) {\n        return contributorsList;\n    }\n\n    function getContributorAmount(address _contributor) external view returns (address, uint) {\n        return (_contributor, contributionsMap[_contributor]);\n    }\n\n    function getContractStatus() external view returns (bool) {\n        return isContractActive;\n    }\n\n    function getTotalContributions() external view returns (uint) {\n        return totalContributions;\n    }\n\n    function submitProposal(uint _valueInWei) external payable onlyifContractStatusActive onlyIfNoOpenProposal onlyIfValueAllowed(_valueInWei) {\n        proposals.push(Proposal(_valueInWei, msg.sender, 0, 0));\n        _beneficiaryProposalIndex[msg.sender] = proposals.length - 1;\n        availableContributions = availableContributions.sub(_valueInWei);\n        emit ProposalSubmitted(msg.sender, _valueInWei);\n    }\n        \n    //function approve(address _beneficiary) external onlyifContractStatusActive onlySigner onlyIfNotVoted(_beneficiary) {\n    function approve(address _beneficiary) external{\n        Proposal storage p = proposals[_beneficiaryProposalIndex[_beneficiary]];\n        p.sigatures[msg.sender] = 1;  \n        p.approvalCount = p.approvalCount.add(1);\n\n        if(p.approvalCount > signerCount.div(2)) {\n            amountToWithdraw[_beneficiary] = amountToWithdraw[_beneficiary].add(p._valueInWei);\n        }\n        emit ProposalApproved(msg.sender, _beneficiary, p._valueInWei);\n    }\n        \n    //function reject(address _beneficiary) external onlyifContractStatusActive onlySigner onlyIfNotVoted(_beneficiary) {\n    function reject(address _beneficiary) external {  \n        Proposal storage p = proposals[_beneficiaryProposalIndex[_beneficiary]];\n        p.sigatures[msg.sender] = 2;\n        p.rejectedCount++;\n            \n        if(p.rejectedCount > signerCount.div(2)) {\n            availableContributions = availableContributions.add(p._valueInWei);\n        }\n        emit ProposalRejected(msg.sender, _beneficiary, p._valueInWei);\n    }\n    \n    function withdraw(address beneficiary, uint _valueInWei) external onlyifContractStatusActive onlyIfWithdrawable(_valueInWei) {\n        amountToWithdraw[msg.sender] = amountToWithdraw[msg.sender].sub(_valueInWei);        \n        beneficiary.transfer(_valueInWei);\n        emit WithdrawPerformed(beneficiary, _valueInWei);\n    }\n        \n    function getSignerVote(address _signer, address _beneficiary) view external returns(uint) {\n        return proposals[_beneficiaryProposalIndex[_beneficiary]].sigatures[_signer];\n    }\n\n    function listOpenBeneficiariesProposals() external view returns (address[]) {\n        address[] memory openBeneficiaries = new address[](proposals.length);\n        uint j = 0;\n\n        if(p.rejectedCount <= signerCount.div(2) && p.approvalCount <= signerCount.div(2)) {\n            openBeneficiaries[j] = p._beneficiary;\n            j++;\n        }\n        \n        for(uint i = 0; i < proposals.length; i++) {\n            Proposal p = proposals[i];\n            address[] memory openBeneficiariesActual = new address[](j);\n            for(i = 0;i<j;i++){\n                openBeneficiariesActual[i] = openBeneficiaries[i];\n            }\n        }\n        return openBeneficiariesActual;\n    }\n\n    function getBeneficiaryProposal(address _beneficiary) external view returns (uint) {\n        return proposals[_beneficiaryProposalIndex[_beneficiary]]._valueInWei;\n    }\n\n    //Added toget Details\n    function getProposalDetails(address proposerAddress) external view \n        returns(address, uint,uint,uint,uint){\n\n        Proposal storage p = proposals[_beneficiaryProposalIndex[proposerAddress]];\n        \n        return (proposerAddress, p._valueInWei, p.approvalCount, p.rejectedCount, amountToWithdraw[msg.sender]);\n    }\n\n    \n    function getProposalAddressList() external view returns(address[], address[]){\n        address[] memory openBeneficiaries = new address[](proposals.length);\n        address[] memory closedBeneficiaries = new address[](proposals.length);\n        uint j = 0;\n        uint k = 0;\n        for(uint i = 0; i < proposals.length; i++) {\n            Proposal memory p = proposals[i];\n            if(p._beneficiary != address(0)){\n                if(p.rejectedCount <= 2 && p.approvalCount <= 2) {\n                    openBeneficiaries[j] = p._beneficiary;\n                    j++;\n                }\n                \n                if(p.rejectedCount >= 2 || p.approvalCount >= 2){\n                    closedBeneficiaries[k] = p._beneficiary;\n                    k++;\n                }\n            }\n        }\n\n        return (openBeneficiaries, closedBeneficiaries);\n    }\n}\n\n    /**\n    * @title SafeMath\n    * @dev Math operations with safety checks that throw on error\n    */\nlibrary SafeMath {\n\n    /**\n    * @dev Multiplies two numbers, throws on overflow.\n    */\n    function mul(uint256 a, uint256 b) internal pure returns (uint256 c) {\n        // Gas optimization: this is cheaper than asserting 'a' not being zero, but the\n        // benefit is lost if 'b' is also tested.\n        // See: https://github.com/OpenZeppelin/openzeppelin-solidity/pull/522\n        if (a == 0) {\n            return 0;\n        }\n\n        c = a * b;\n        assert(c / a == b);\n        return c;\n    }\n\n    /**\n    * @dev Integer division of two numbers, truncating the quotient.\n    */\n    function div(uint256 a, uint256 b) internal pure returns (uint256) {\n        // assert(b > 0); // Solidity automatically throws when dividing by 0\n        // uint256 c = a / b;\n        // assert(a == b * c + a % b); // There is no case in which this doesn't hold\n        return a / b;\n    }\n\n    /**\n    * @dev Subtracts two numbers, throws on overflow (i.e. if subtrahend is greater than minuend).\n    */\n    function sub(uint256 a, uint256 b) internal pure returns (uint256) {\n        assert(b <= a);\n        return a - b;\n    }\n\n    /**\n    * @dev Adds two numbers, throws on overflow.\n    */\n    function add(uint256 a, uint256 b) internal pure returns (uint256 c) {\n        c = a + b;\n        assert(c >= a);\n        return c;\n    }\n}",
  "sourcePath": "/opt/projects/multisigwallet-ui/contracts/MultiSigContract.sol",
  "compiler": {
    "name": "solc",
    "version": "0.4.24+commit.e67f0147.Emscripten.clang"
  },
  "schemaVersion": "2.0.1",
  "updatedAt": "2018-08-26T02:49:17.110Z"
}